:020000040800F2
:10000000783A012095110008011200080112000839
:10001000011200080112000801120008000000008F
:1000200000000000000000000000000001120008B5
:10003000011200080000000001120008011200086F
:100040000112000801120008011200080112000844
:100050000112000801120008011200080112000834
:100060000112000801120008011200080112000824
:100070000112000801120008011200080112000814
:100080000112000801120008011200080112000804
:1000900001120008011200080112000801120008F4
:1000A00001120008011200080112000801120008E4
:1000B00021260008011200080112000801120008A0
:1000C00001120008011200080112000801120008C4
:1000D00001120008011200080112000801120008B4
:1000E00001120008011200080112000801120008A4
:1000F0000112000801120008011200080112000894
:100100000112000801120008011200080112000883
:100110000112000801120008011200080112000873
:100120000112000801120008011200080112000863
:100130000112000801120008011200080112000853
:100140000112000801120008011200080112000843
:10015000D926000801120008011200080112000847
:100160000112000801120008011200080112000823
:100170000112000801120008011200080112000813
:10018000011200080112000880B500AF01F050F91B
:1001900002F0C8FAFF2002F0CBFA00F003F800BF2B
:1001A00080BD00BF80B500AF0121034801F0E2F936
:1001B000014800F087F9F7E710050020B0B5C2B09C
:1001C00000AF0246FB1D1A70FB1D1B78302B00F29E
:1001D000FE8001A252F823F0E70300089D02000808
:1001E000BB020008CF020008CF030008CF030008BD
:1001F000CF030008CF030008CF030008CF03000897
:10020000CF030008CF030008CF030008CF03000886
:10021000CF030008CF030008E1020008F502000840
:10022000090300081D030008310300084503000806
:10023000CF030008CF030008A7030008BB03000892
:10024000CF030008CF030008CF030008CF03000846
:10025000CF030008CF03000859030008710300080A
:10026000CF030008CF030008CF030008CF03000826
:10027000CF030008CF030008CF030008CF03000816
:10028000CF030008CF030008CF030008CF03000806
:10029000CF030008CF0300088F03000807F108030D
:1002A000534A1C4615460FCD0FC495E80F0007C4EE
:1002B000238002341B0C23708FE007F108034D4AA2
:1002C0001846114681231A4603F056F985E007F1D6
:1002D0000803494A1C4613460FCB84E80F007CE014
:1002E00007F10803454A1846114659231A4603F0F8
:1002F00043F972E007F10803414A1846114670239A
:100300001A4603F039F968E007F108033D4A184638
:1003100011469E231A4603F02FF95EE007F1080309
:10032000394A1846114691231A4603F025F954E03C
:1003300007F10803354A1846114670231A4603F0A0
:100340001BF94AE007F10803314A184611465323C6
:100350001A4603F011F940E007F108032D4A1C4644
:1003600015460FCD0FC40FCD0FC42B68236034E0AA
:1003700007F10803284A1C4615460FCD0FC495E81F
:100380000F0007C4238002341B0C237025E007F103
:100390000803224A1C4615460FCD0FC495E80F00EE
:1003A00007C4238019E007F108031D4A18461146C7
:1003B00065231A4603F0E0F80FE007F10803194A35
:1003C000184611467E231A4603F0D6F805E0164B70
:1003D0001A7807F108031A7000BF07F108031846DE
:1003E00001F08AF800E000BF07F58477BD46B0BD94
:1003F0002445000844450008C8450008D8450008C1
:1004000034460008A446000844470008D8470008BE
:10041000484800089C480008C0480008E048000818
:100420000049000868490008E849000880B586B01E
:1004300000AF7860396000237B6100233B613B693A
:100440007A6813441B782D2B27D101233B6124E0CC
:100450000023FB600FE03B697A6813441A78FB685D
:1004600017490B441B789A4209D07B6901337B61A1
:10047000FB680133FB60FB68092BECD900E000BF8F
:100480007B69092B04DD3B6800221A60032312E01C
:1004900000237B613B6901333B61786803F0F0FB2B
:1004A00002463B699A42D3D8786803F061F8024665
:1004B0003B681A60002318461837BD4680BD00BF50
:1004C000EC4900082DE9F04FA9B008AF7860002191
:1004D000F96702E0F96F0131F967F96F7868014453
:1004E00009780029F6D1F96F002900F02A83FE6F00
:1004F00069463960711EF965314608464FF00001C2
:100500004FEAC10B4BEA507B4FEAC00A314608461E
:100510004FF00001CB0043EA5073C200334607336B
:10052000DB08DB00ADEB030D08AB0033BB65BB6D37
:100530007968184603F042FB00237B6700233B6782
:100540000FE0BA6D3B6F13441B782C2B0CBF0123BB
:100550000023DBB21A467B6F13447B673B6F01338A
:100560003B67BA6D3B6F13441B78002BE9D1796F61
:100570006B461E464B1E7B650B461A464FF000032A
:100580004FEA431949EAD2694FEA42180B461A4624
:100590004FF000035D0145EAD26554010B469B0014
:1005A00003330733DB08DB00ADEB030D08AB03338C
:1005B0009B089B003B65BB6D9B49184603F054FEAE
:1005C000B86700233B6710E00021B86F00F01CFB08
:1005D00001463B6D3A6F43F822103B6F01333B6796
:1005E0009149002003F040FEB867BB6F002BEBD1B0
:1005F0000023BB603B6D1B68184600F019FB0346E7
:10060000013B062B00F2958201A252F823F000BFB5
:100610002D060008F9060008350700082D08000817
:10062000F108000855090008930A00087B6F062BA3
:1006300002D07B6F072B5BD13B6D5B6807F1080233
:100640000121184600F04AFBF8643B6D9B6807F1F6
:1006500008020121184600F041FBB8643B6DDB68DD
:1006600007F108020121184600F038FB78643B6D61
:100670001B6907F108020121184600F02FFB3864BE
:100680003B6D5B6907F108020221184600F026FB6A
:10069000F8633B6D9B6907F108020121184600F0E1
:1006A0001DFBB8667B6F062B02D100237B6608E03A
:1006B0003B6DDB6907F108020121184600F00EFBD3
:1006C0007866BB68002B13D17B6E0293BB6E0193DF
:1006D000FB6B00933B6C7A6CB96CF86C02F07AF9A6
:1006E0000346BB60BB68DBB21846FFF767FD24E238
:1006F0001120FFF763FD20E27B6F012B16D13B6DCC
:100700005B6807F108020221184600F0E7FAF86377
:10071000BB68002B0AD1F86B02F00AF80346BB60F5
:10072000BB68DBB21846FFF749FD06E21020FFF771
:1007300045FD02E27B6F052B71DD7B6F082B6EDCC4
:100740003B6D5B6807F108020121184600F0C6FA0C
:10075000F8643B6D9B6807F108020121184600F020
:10076000BDFAB8643B6DDB6807F108020121184649
:1007700000F0B4FAB8633B6D1B6907F10802012170
:10078000184600F0ABFA78633B6D5B6907F108022D
:100790000221184600F0A2FAF8633B6D9B6907F14D
:1007A00008020121184600F099FA38667B6F062B83
:1007B00004D10123BB66FB6BFB6617E03B6DDB6975
:1007C00007F108020121184600F088FAB8667B6F2D
:1007D000072B02D1FB6BFB6608E03B6D1B6A07F140
:1007E00008020221184600F079FAF866BB68002B6F
:1007F00015D1FB6E0393BB6E02933B6E0193FB6BB3
:1008000000937B6BBA6BB96CF86C01F09DFF0346EB
:10081000BB60BB68DBB21846FFF7D0FC8DE112204D
:10082000FFF7CCFC89E100BFF84900087B6F062B7D
:100830005ADD7B6F082B57DC3B6D5B6807F10802C4
:100840000121184600F04AFAF8643B6D9B6807F1F5
:1008500008020121184600F041FAB8643B6DDB68DC
:1008600007F108020221184600F038FAF8633B6DE0
:100870009B6907F108020121184600F02FFA38633E
:100880003B6DDB6907F108020321184600F026FAE8
:10089000F8627B6F072B02DC00237B6608E03B6D70
:1008A0001B6A07F108020121184600F017FA786662
:1008B000BB68002B18D13B6D19693B6D5B697A6E83
:1008C0000392FA6A02923A6B019200930B46FA6B1A
:1008D000B96CF86C02F070FB0346BB60BB68DBB21E
:1008E0001846FFF76BFC28E11320FFF767FC24E1B3
:1008F0007B6F032B2AD13B6D9B6807F10802012116
:10090000184600F0EBF9F8643B6DDB6807F108026C
:100910000121184600F0E2F9B8643B6D5B6807F10D
:1009200008020121184600F0D9F9B862BB68002B13
:100930000CD1BA6AB96CF86C02F01AFC0346BB60C1
:10094000BB68DBB21846FFF739FCF6E01420FFF76E
:1009500035FCF2E07B6F0A2B40F397807B6F0C2B0A
:1009600000F393803B6D5B6807F108020121184694
:1009700000F0B4F9F8643B6D9B6807F108020121AF
:10098000184600F0ABF9B8643B6DDB6807F108026C
:100990000121184600F0A2F978643B6D1B6907F14C
:1009A00008020121184600F099F938643B6D5B6933
:1009B00007F108020121184600F090F978623B6DBA
:1009C0009B6907F108020121184600F087F9386297
:1009D0003B6DDB6907F108020121184600F07EF942
:1009E000F8613B6D1B6A07F108020121184600F00F
:1009F00075F9B8613B6D5B6A07F108020121184681
:100A000000F06CF978613B6D9B6A07F108020121E7
:100A1000184600F063F938613B6DDB6A07F10802A4
:100A20000221184600F05AF9F8637B6F0B2B02DCA9
:100A30000123BB6608E03B6D1B6B07F10802012137
:100A4000184600F04BF9B866BB68002B1DD1BB6E91
:100A50000793FB6B06933B6905937B690493BB6922
:100A60000393FB6902933B6A01937B6A00933B6C9F
:100A70007A6CB96CF86C02F0C1F80346BB60BB68D5
:100A8000DBB21846FFF79AFB57E01920FFF796FBF9
:100A900053E07B6F032B48DD7B6F052B45DC3B6D03
:100AA0005B6807F108020121184600F017F9F864A5
:100AB0003B6D9B6807F108020121184600F00EF912
:100AC000B8643B6DDB6807F108020121184600F0AD
:100AD00005F9F8603B6D1B6907F108020221184611
:100AE00000F0FCF8F8637B6F042B02DC00233B660C
:100AF00008E03B6D5B6907F108020121184600F030
:100B0000EDF83866BB68002B0FD13B6E0093FB6B92
:100B1000FA68B96CF86C01F0B3FE0346BB60BB68C1
:100B2000DBB21846FFF74AFB07E01820FFF746FB49
:100B300003E00220FFF742FB00BFB546D7F800D024
:100B400000E000BF8437BD46BDE8F08F80B584B0BB
:100B500000AF786039603B68002B01D1124B3B60DD
:100B60003968786803F0FAF8F860FB68002B16D053
:100B7000786803F085F8B860FA68BB689A4203D1D8
:100B80007B6800221A700AE07A68FB68D118BA689C
:100B9000FB68D31A01331A46786802F087FD7B6838
:100BA00018461037BD4680BDFC49000880B584B0AA
:100BB00000AF786039603B68002B01D1114B3B607E
:100BC000786803F05DF80346013BFB6007E0FB68D3
:100BD0007A68134400221A70FB68013BFB60FB68D3
:100BE000002B0ADBFB687A6813441B7819463868C7
:100BF00002F00EFE0346002BE9D17B681846103741
:100C0000BD4680BDFC49000880B582B000AF786069
:100C1000396039687868FFF7C9FF034639681846B4
:100C2000FFF794FF034618460837BD4680BD00BF56
:100C300080B582B000AF78602149786803F004FA8B
:100C40000346002B01D0012336E01E49786803F0EB
:100C5000FBF90346002B01D002232DE01A497868E6
:100C600003F0F2F90346002B01D0032324E01749D7
:100C7000786803F0E9F90346002B01D004231BE058
:100C80001349786803F0E0F90346002B01D00523EF
:100C900012E01049786803F0D7F90346002B01D021
:100CA000062309E00C49786803F0CEF90346002BCF
:100CB00001D0072300E0002318460837BD4680BD59
:100CC000044A00080C4A0008184A0008244A000890
:100CD0002C4A0008344A00083C4A000880B586B017
:100CE00000AFF860B9607A60BB68022B11D0032BAB
:100CF00000F09F80012B00D0BBE007F114031946E0
:100D0000F868FFF793FB0346002B40F0AD807B694A
:100D1000B5E05D49F86802F0E7FD0346002B01D11C
:100D20000023ACE05949F86802F0DEFD0346002BD1
:100D300001D10323A3E05649F86802F0D5FD03462C
:100D4000002B01D153239AE05249F86802F0CCFD00
:100D50000346002B01D11C2391E04F49F86802F0B3
:100D6000C3FD0346002B01D17D2388E04B49F86881
:100D700002F0BAFD0346002B01D11F237FE0484952
:100D8000F86802F0B1FD0346002B01D17F2376E025
:100D90004449F86802F0A8FD0346002B01D1E02386
:100DA0006DE04149F86802F09FFD0346002B01D138
:100DB000ED2364E03D49F86802F096FD0346002B00
:100DC00001D1E3235BE03A49F86802F08DFD034668
:100DD000002B01D1EF2352E03649F86802F084FD80
:100DE0000346002B01D1A52349E03349F86802F0FE
:100DF0007BFD0346002B01D1FC2340E02F49F8681E
:100E000002F072FD0346002B01D1492337E02C4943
:100E1000F86802F069FD0346002B01D1FF232EE0A4
:100E20002849F86802F060FD0346002B1ED1F2232A
:100E300025E02549F86802F057FD0346002B01D153
:100E400001231CE02149F86802F04EFD0346002B07
:100E500001D1022313E01E49F86802F045FD034664
:100E6000002B05D103230AE000BF02E000BF00E031
:100E700000BF7B681B685A1C7B681A6000231846F9
:100E80001837BD4680BD00BF444A00084C4A0008E0
:100E9000544A0008604A0008684A0008744A00087A
:100EA0007C4A0008884A0008904A00089C4A0008CA
:100EB000A44A0008B44A0008BC4A0008C44A000812
:100EC000CC4A0008D04A0008D84A0008E04A000886
:100ED000E44A000880B58AB000AF7860396000232A
:100EE0007B6200233B620023FB610023BB617B68C4
:100EF0001B8A9BB27B627B6A23F440537B623B6814
:100F0000DB881A467B6A13437B627B6A9AB27B68F2
:100F10001A827B689B899BB27B627B6A23F4B05305
:100F200023F00C037B623B689A883B681B89134360
:100F30009AB23B685B8913439BB21A467B6A1343A0
:100F40007B627B6A9AB27B689A817B689B8A9BB240
:100F50007B627B6A23F440737B623B689B891A4601
:100F60007B6A13437B627B6A9AB27B689A8207F141
:100F70000803184600F052F97B68304A934203D0C8
:100F80007B682F4A934202D17B693B6201E03B6957
:100F90003B627B689B899BB21BB2002B0CDA3A6ADE
:100FA00013469B0013449A001A443B681B685B007D
:100FB000B2FBF3F3FB610BE03A6A13469B00134468
:100FC0009A001A443B681B689B00B2FBF3F3FB6179
:100FD000FB691C4AA2FB03235B091B017B627B6A42
:100FE0001B09642202FB03F3FA69D31ABB617B6815
:100FF0009B899BB21BB2002B0CDABB69DB0032333E
:10100000104AA2FB03235B0903F007037A6A134328
:101010007B620BE0BB691B0132330A4AA2FB03234C
:101020005B0903F00F037A6A13437B627B6A9AB20F
:101030007B681A8100BF2837BD4680BD0010014083
:10104000001401401F85EB5180B483B000AF78607D
:101050000B46FB70FB78002B08D07B689B899BB20A
:1010600043F400539AB27B689A8107E07B689B89BE
:101070009BB223F400539AB27B689A8100BF0C376D
:10108000BD465DF8047B704780B483B000AF7860E4
:101090000B467B807B88C3F308039AB27B689A80F7
:1010A00000BF0C37BD465DF8047B704780B483B049
:1010B00000AF78607B689B889BB2C3F308039BB248
:1010C00018460C37BD465DF8047B704780B487B086
:1010D00000AF78600B467B8013467B7000233B613A
:1010E0000023FB600023BB6000237B617B687B6186
:1010F0007B88DBB25B09DBB23B617B8803F01F03BB
:10110000FB600122FB6802FA03F3BB603B69012B21
:1011100003D17B690C337B6109E03B69022B03D16E
:101120007B6910337B6102E07B6914337B617B78E0
:10113000002B06D07B697A691168BA680A431A6085
:1011400006E07B697A691168BA68D2430A401A607E
:1011500000BF1C37BD465DF8047B704780B485B086
:1011600000AF78600B467B800023FB737B681B8895
:101170009AB27B8813409BB2002B02D00123FB73F1
:1011800001E00023FB73FB7B18461437BD465DF876
:10119000047B704780B582B000AF134B7B60134B6C
:1011A0003B6007E03B681A1D3A607A68111D796060
:1011B00012681A603B680E4A9342F3D30D480E49F9
:1011C0004FF000028842B8BF40F8042BFADBDFF88A
:1011D0002C00016841F47001016000F015F800BFB7
:1011E0000837BD4680BD00BF79820008000000209E
:1011F00010050020100500207432012088ED00E069
:1012000080B400AFFEE700BF80B500AF00F0B8FAD1
:10121000FEF7BAFF0023184680BD00BF80B489B036
:1012200000AF78600023BB6100237B610023FB617A
:1012300002233B610023FB600223BB60484B9B6899
:1012400003F00C03BB61BB69042B07D0082B09D04A
:10125000002B3FD17B68434A1A603FE07B68424ADB
:101260001A603BE03E4B5B6803F480039B0DFB6020
:101270003B4B5B6803F03F03BB60FB68002B0DD06A
:10128000394ABB68B2FBF3F2354B596847F6C07375
:101290000B409B0903FB02F3FB610CE0314ABB6886
:1012A000B2FBF3F22E4B596847F6C0730B409B0913
:1012B00003FB02F3FB612A4B5B6803F440331B0C16
:1012C00001335B003B61FA693B69B2FBF3F27B6877
:1012D0001A6003E07B68234A1A6000BF204B9B68BA
:1012E00003F0F003BB61BB691B09BB611F4ABB690B
:1012F00013441B78DBB27B617B681A687B69DA4038
:101300007B685A60164B9B6803F4E053BB61BB6972
:101310009B0ABB61154ABB6913441B78DBB27B6136
:101320007B685A687B69DA407B689A600C4B9B68E3
:1013300003F46043BB61BB695B0BBB610B4ABB69D8
:1013400013441B78DBB27B617B685A687B69DA40A7
:101350007B68DA6000BF2437BD465DF8047B7047C8
:10136000003802400024F40000127A00000000203F
:1013700080B483B000AF78600B46FB70FB78002B25
:1013800006D00A49094B1A6B7B6813430B6306E0CE
:101390000649064B1A6B7B68DB4313400B6300BFA7
:1013A0000C37BD465DF8047B704700BF0038024033
:1013B00080B483B000AF78600B46FB70FB78002BE5
:1013C00006D00A49094B1A6C7B6813430B6406E08C
:1013D0000649064B1A6C7B68DB4313400B6400BF65
:1013E0000C37BD465DF8047B704700BF00380240F3
:1013F00080B483B000AF78600B46FB70FB78002BA5
:1014000006D00A49094B5A6C7B6813434B6406E0CB
:101410000649064B5A6C7B68DB4313404B6400BFA4
:101420000C37BD465DF8047B704700BF00380240B2
:1014300080B586B000AF01214FF40030FFF7B8FF50
:1014400001210120FFF794FF0C233B6102233B7530
:101450000023BB750123FB7502237B7507F1100385
:101460001946164800F0B4F807220221134800F08C
:101470003DF907220321114800F038F94FF4E13318
:101480003B600023BB800023FB8000233B810023C3
:10149000BB810C237B813B4619460948FFF71AFDA7
:1014A000012240F225510648FFF710FE01210448B1
:1014B000FFF7CAFD00BF1837BD4680BD00000240DF
:1014C0000044004080B582B000AF0346FB7100BF0E
:1014D00080210848FFF742FE0346002BF8D0FB7935
:1014E0009BB219460348FFF7CFFD00BF0837BD4642
:1014F00080BD00BF0044004080B584B000AF78607C
:101500000023FB6009E0FB687A6813441B781846E7
:10151000FFF7D8FFFB680133FB60FB687A68134470
:101520001B78002BEFD10D20FFF7CCFF0A20FFF72F
:10153000C9FF00BF1037BD4680BD00BF80B582B077
:1015400000AFFF23FB7120210948FFF707FE034688
:10155000012B07D10648FFF7A9FD0346DAB2FB7954
:101560001340FB71FB7918460837BD4680BD00BFAC
:101570000044004080B582B000AF78603960FFF76A
:10158000DDFF03461A467B681A707B681B78FF2BC9
:1015900018D07B681B780A2B14D03B68002B04D032
:1015A0007B681B781846FFF78DFF7B681B780D2B37
:1015B00004D17B6800221A70002305E07B680133A8
:1015C0007B60DCE700BFDAE718460837BD4680BD20
:1015D00080B487B000AF7860396000237B6100235E
:1015E0003B610023FB6000237B6176E001227B6985
:1015F00002FA03F33B613B681A683B691340FB60E6
:10160000FA683B699A4265D17B681A687B695B001E
:10161000032101FA03F3DB431A407B681A607B68FD
:101620001A683B681B7919467B695B0001FA03F372
:101630001A437B681A603B681B79012B03D03B6817
:101640001B79022B2ED17B689A687B695B00032192
:1016500001FA03F3DB431A407B689A607B689A685F
:101660003B685B7919467B695B0001FA03F31A4317
:101670007B689A607B685A687B699BB2012101FA9A
:1016800003F3DB431A407B685A607B685A683B6807
:101690009B7919467B699BB201FA03F39BB21A430B
:1016A0007B685A607B68DA687B699BB25B000321C8
:1016B00001FA03F3DB431A407B68DA607B68DA687F
:1016C0003B68DB7919467B695B0001FA03F31A4337
:1016D0007B68DA607B6901337B617B690F2B85D97D
:1016E00000BF1C37BD465DF8047B704780B485B0F1
:1016F00000AF78600B467B8013467B700023FB6055
:101700000023BB607A787B8803F007039B0002FA12
:1017100003F3FB607B88DB089BB218467B88DB0801
:101720009BB21A467B68083253F822207B8803F06C
:1017300007039B000F2101FA03F3DB4302EA0301D5
:101740007B6800F1080243F822107B88DB089BB21B
:101750001A467B68083253F82220FB681343BB60AB
:101760007B88DB089BB21A467B680832B96843F86D
:10177000221000BF1437BD465DF8047B704700BFE0
:1017800080B500AF144A144BD3F8883043F470038B
:10179000C2F88830114A114B1B6843F001031360F3
:1017A0000E4B00229A600D4A0C4B1B6823F0847389
:1017B00023F480331360094B094A5A60074A074BE8
:1017C0001B6823F48023136000F00CF8024B4FF0E9
:1017D00000629A6000BF80BD00ED00E0003802406A
:1017E0001030002480B483B000AF00237B6000235E
:1017F0003B60364A354B1B6843F480331360334BF0
:101800001B6803F400333B607B6801337B603B68FB
:10181000002B03D17B68B3F5A06FF0D12B4B1B6875
:1018200003F40033002B02D001233B6001E00023CE
:101830003B603B68012B42D1244A244B1B6C43F094
:1018400080531364224A224B1B6843F48043136085
:101850001E4A1E4B9B6893601C4A1C4B9B6843F4BA
:1018600000439360194A194B9B6843F4A05393605B
:10187000164B184A5A60154A144B1B6843F0807384
:10188000136000BF114B1B6803F00073002BF9D0ED
:10189000114B40F205621A600C4A0C4B9B6823F016
:1018A00003039360094A094B9B6843F0020393606A
:1018B00000BF064B9B6803F00C03082BF9D100BF57
:1018C0000C37BD465DF8047B704700BF003802400E
:1018D0000070004008544007003C024080B483B0D0
:1018E00000AF78607B681B6823F001027B681A6098
:1018F0007B6800221A607B6800225A607B680022A5
:101900009A607B680022DA607B6800221A617B683B
:1019100021225A617B68464A934203D1454B3D22BE
:101920009A607EE07B68444A934204D1414B4FF475
:1019300074629A6075E07B68404A934204D13D4BE3
:101940004FF474129A606CE07B683D4A934204D174
:10195000384B4FF074629A6063E07B68394A934277
:1019600003D1344B384ADA605BE07B68374A9342F4
:1019700003D1304B364ADA6053E07B68354A9342F4
:1019800003D12C4B344ADA604BE07B68334A9342F4
:1019900004D1284B4FF03D52DA6042E07B68304A78
:1019A000934203D12F4B3D229A603AE07B682E4A46
:1019B000934204D12B4B4FF474629A6031E07B6800
:1019C0002A4A934204D1274B4FF474129A6028E0BC
:1019D0007B68274A934204D1224B4FF074629A608D
:1019E0001FE07B68234A934203D11E4B164ADA60FC
:1019F00017E07B68204A934203D11A4B144ADA60FD
:101A00000FE07B681D4A934203D1164B124ADA60FD
:101A100007E07B681A4A934203D1124B4FF03D52C4
:101A2000DA6000BF0C37BD465DF8047B704700BF2D
:101A300010600240006002402860024040600240A6
:101A400058600240706002403D0000208860024003
:101A5000400F0020A060024000003D20B86002401E
:101A60001064024000640240286402404064024066
:101A7000586402407064024088640240A0640240DE
:101A8000B864024080B485B000AF7860396000234C
:101A9000FB607B681B68FB60FA68254B1340FB60AA
:101AA0003B681A683B68DB681A433B685B691A430A
:101AB0003B689B691A433B68DB691A433B681B6AB6
:101AC0001A433B685B6A1A433B689B6A1A433B684C
:101AD0005B6B1A433B689B6B1343FA681343FB60D1
:101AE0007B68FA681A607B685B69FB60FB6823F0BF
:101AF0000703FB603B68DA6A3B681B6B1343FA68B9
:101B00001343FB607B68FA685A613B681A697B681B
:101B10005A603B685A687B689A603B689A687B6841
:101B2000DA6000BF1437BD465DF8047B704700BF24
:101B30003F801CF080B483B000AF78600B46FB7030
:101B4000FB78002B06D07B681B6843F001027B68A2
:101B50001A6005E07B681B6823F001027B681A604D
:101B600000BF0C37BD465DF8047B704780B485B07C
:101B700000AFF860B9601346FB71BB6803F08003E7
:101B8000002B0FD0FB79002B06D0FB685B6943F07C
:101B90008002FB685A6105E0FB685B6923F0800204
:101BA000FB685A61BB68802B14D0FB79002B08D0EE
:101BB000FB681A68BB6803F01E031A43FB681A60CF
:101BC00008E0FB681A68BB6803F01E03DB431A4099
:101BD000FB681A6000BF1437BD465DF8047B704790
:101BE00080B487B000AF786039600023FB750023B4
:101BF000FB600023BB607B68224A934202D8224BE1
:101C00003B6101E0214B3B613B6823F0F02323F073
:101C1000C313002B0AD03B68DB0A03F01E03FB60F2
:101C20007B681A68FB681340BB6004E07B685B69F3
:101C300003F08003BB603B6803F00053002B03D02C
:101C40003B695B68FB6002E03B691B68FB60FB680B
:101C500023F0F02323F08213FB60FA683B68134003
:101C6000002B05D0BB68002B02D00123FB7501E0DF
:101C70000023FB75FB7D18461C37BD465DF8047BD1
:101C8000704700BF0F6402400060024000640240E1
:101C900080B485B000AF786039607B68104A9342A9
:101CA00002D8104BFB6001E00F4BFB603B6803F078
:101CB0000053002B07D03B6823F0F02323F082135E
:101CC000FA68D36006E03B6823F0F02323F0821328
:101CD000FA68936000BF1437BD465DF8047B704717
:101CE0000F640240006002400064024080B485B08E
:101CF00000AF78600023FB730023BB730F237B735B
:101D00007B68DB78002B38D0274BDB68DB4303F4A0
:101D1000E0631B0AFB73FB7BC3F10403BB737A7B99
:101D2000FB7B42FA03F37B737B685B781A46BB7BD1
:101D300002FA03F3FB737B689A787B7B1340DAB279
:101D4000FB7B1343FB73FB7B1B01FB73174A7B6815
:101D50001B781344FA7B83F80023144A7B681B78B2
:101D60005B09DBB218467B681B7803F01F03012177
:101D700001FA03F342F820300FE00C497B681B782E
:101D80005B09DBB218467B681B7803F01F03012256
:101D90009A4000F1200341F8232000BF1437BD46CC
:101DA0005DF8047B704700BF00ED00E000E100E05B
:101DB00080B485B000AF786039600023FB817B6818
:101DC0001B88FB817B68294A934213D07B68284A91
:101DD00093420FD07B68B3F1804F0BD07B68254ACC
:101DE000934207D07B68244A934203D07B68234AFE
:101DF000934208D1FB8923F07003FB813B685A882A
:101E0000FB891343FB817B681D4A93420CD07B689E
:101E10001C4A934208D0FB8923F44073FB813B6842
:101E20001A89FB891343FB817B68FA891A803B6816
:101E30005A687B68DA623B681A887B681A857B6817
:101E40000A4A934203D07B68094A934204D13B6813
:101E50009B7A9AB27B681A867B6801229A8200BFBD
:101E60001437BD465DF8047B704700BF0000014099
:101E7000000401400004004000080040000C004045
:101E8000001000400014004080B483B000AF7860C0
:101E90000B46FB70FB78002B08D07B681B889BB23D
:101EA00043F080039AB27B681A8007E07B681B8846
:101EB0009BB223F080039AB27B681A8000BF0C3774
:101EC000BD465DF8047B704780B483B000AF786096
:101ED0000B46FB70FB78002B08D07B681B889BB2FD
:101EE00043F001039AB27B681A8007E07B681B8885
:101EF0009BB223F001039AB27B681A8000BF0C37B3
:101F0000BD465DF8047B704780B485B000AF786053
:101F1000396000237B810023FB810023BB817B6828
:101F20001B8C9BB223F480739AB27B681A847B6803
:101F30001B8CFB817B689B88BB817B689B8B7B8137
:101F40007B8923F070037B817B8923F003037B81F2
:101F50003B681A887B8913437B81FB8923F40073D8
:101F6000FB813B689B891B029AB2FB891343FB816F
:101F70003B685B881B029AB2FB891343FB817B6839
:101F8000224A934203D07B68214A93422BD1FB899A
:101F900023F40063FB813B68DB891B029AB2FB8957
:101FA0001343FB81FB8923F48063FB813B689B889F
:101FB0001B029AB2FB891343FB81BB8923F4805334
:101FC000BB81BB8923F40053BB813B681B8A1B0187
:101FD0009AB2BB891343BB813B685B8A1B019AB2EF
:101FE000BB891343BB817B68BA899A807B687A89F5
:101FF0009A833B689A687B68DA637B68FA891A84FB
:1020000000BF1437BD465DF8047B704700000140F7
:102010000004014080B485B000AF786039600023CF
:10202000BB8100237B810023FB817B681B8C9BB2DF
:1020300023F480539AB27B681A847B681B8C7B8163
:102040007B689B88FB817B689B8BBB81BB8923F46E
:10205000E043BB81BB8923F44073BB813B681B8891
:102060001B029AB2BB891343BB817B8923F40053C3
:102070007B813B689B891B039AB27B8913437B81DD
:102080003B685B881B039AB27B8913437B817B6827
:10209000124A934203D07B68114A93420AD1FB89CA
:1020A00023F48043FB813B681B8A9B019AB2FB8926
:1020B0001343FB817B68FA899A807B68BA899A838B
:1020C0003B689A687B681A647B687A891A8400BFC7
:1020D0001437BD465DF8047B704700BF0000014027
:1020E0000004014080B485B000AF78600B467B806F
:1020F0000023FB817B689B8BFB81FB8923F008031A
:10210000FB81FA897B881343FB817B68FA899A8378
:1021100000BF1437BD465DF8047B704780B485B0BE
:1021200000AF78600B467B800023FB817B689B8B34
:10213000FB81FB8923F40063FB817B881B029AB23D
:10214000FB891343FB817B68FA899A8300BF1437AC
:10215000BD465DF8047B704780B483B000AF786003
:102160000B467B8013467B707B78002B08D07B6806
:102170009B899AB27B8813439AB27B689A8109E063
:102180007B689B899AB27B88DB439BB213409AB2EF
:102190007B689A8100BF0C37BD465DF8047B7047B1
:1021A00080B483B000AF78600B467B807B88DB43D4
:1021B0009AB27B681A8200BF0C37BD465DF8047B7B
:1021C000704700BF80B483B000AF78600B467B805F
:1021D00013467B707B78002B08D07B689B899AB272
:1021E0007B8813439AB27B689A8109E07B689B895C
:1021F0009AB27B88DB439BB213409AB27B689A8188
:1022000000BF0C37BD465DF8047B704780B500AF5A
:102210000C4B00221A800B4B00225A60094B002203
:102220009A60002000F078F800F0CEF800F020F975
:1022300000F0AEF900F080F9034B1A68014B9A6088
:1022400080BD00BF740500208864024080B485B062
:1022500000AFF860B9607A60FB68B3F5A07F14DA6C
:10226000FB68002B11DBBB68EF2B0EDCBB68002B7F
:102270000BDBBA6813469B0013449B011A44FB68AE
:1022800013447A68D1B2034AD1541437BD465DF87D
:10229000047B70478005002080B584B000AFF860F3
:1022A000B9607A603B60BB68EF2B2FDCBB68002B0A
:1022B0002CDBFB68B3F5A07F28DAFA687B6813444F
:1022C000002B23DDFA687B681344B3F5A07F03DDA0
:1022D000FB68C3F5A0737B60FB68002B05DA7A68A6
:1022E000FB6813447B600023FB60BA6813469B00C5
:1022F00013449B0113441A46FB681A44054B1A44C5
:102300007B68104639681A4601F034FA1037BD462A
:1023100080BD00BF8005002080B584B000AF78602C
:102320000C4879680C4A01F025FA4FF4A073FB6061
:1023300008E0084AFB68134400221A70FB6803F2A5
:102340004113FB60FA68054B9A42F2DD1037BD4637
:1023500080BD00BF80050020F02C0100EF2C0100A3
:1023600080B586B000AFF860B9607A6000237B6109
:102370001FE07B695A1C13469B0013449B011A44BF
:10238000BB6813441A46FB681A440E4BD1187B688D
:102390001A687B689B68786900FB03F31A447B68C2
:1023A0009B68084611461A4601F0E6F87B6901333E
:1023B0007B617B68DA687B699A42DADC1837BD4654
:1023C00080BD00BF8005002080B582B000AF102026
:1023D0000121FEF7CDFF4FF47F433B6001233B71AA
:1023E0000023BB710123FB7103237B713B461E4815
:1023F0001946FFF7EDF81C4B4FF47F425A83022039
:102400000121FEF7B5FF4FF400633B6002233B71EF
:1024100003237B710023BB710123FB713B461348EF
:102420001946FFF7D5F811480B210122FFF75EF995
:1024300002200121FEF79CFF4FF480533B600123F3
:102440003B710023BB710123FB7103237B713B466E
:1024500006481946FFF7BCF8044B4FF480521A8324
:102460000837BD4680BD00BF001002400004024096
:1024700080B588B000AF01200121FEF7B9FF0B2322
:10248000BB610023BB820023BB830023FB8207F1D7
:10249000140328481946FFF78BFC01200121FEF7A1
:1024A00087FF40F66B23BB610023BB820023BB8305
:1024B0000023FB8207F114034FF080401946FFF719
:1024C00077FC60233B8001237B804FF4D273BB6099
:1024D0000223BB813B464FF080401946FFF714FDB5
:1024E0004FF080400821FFF7FDFD60233B80012372
:1024F0007B804FF4A073BB600223BB813B464FF04F
:1025000080401946FFF786FD4FF080400821FFF715
:1025100005FE08480121FFF7B7FC4FF0804001217C
:10252000FFF7B2FC4FF080400121FFF7CDFC2037D0
:10253000BD4680BD0000014080B582B000AF1348A9
:1025400010210122FFF712FB44233B7100237B7112
:102550000023BB710123FB713B1D1846FFF7C6FB2F
:102560004FF0804008210122FFF7F6FD1C233B714C
:1025700000237B710023BB710123FB713B1D1846B7
:10258000FFF7B4FB0837BD4680BD00BF886402403A
:1025900080B590B000AF4FF480000121FEF7E8FE57
:1025A0001B480021FFF7C6FA1948FFF797F94FF0CB
:1025B00040637B60174BBB60174BFB6040233B6164
:1025C00040F241137B610023BB614FF48063FB61E8
:1025D00000233B6200237B620023BB624FF4403345
:1025E000FB6200233B6301237B630023BB63002367
:1025F000FB633B1D06481946FFF744FA07484FF4B2
:1026000080710122FFF7DEFD4037BD4680BD00BF6F
:10261000886402401510024080050020000001403F
:1026200080B500AF4FF080400821FFF7B9FD254B82
:102630001B8801339AB2234B1A80224B1B88B3F5B7
:10264000037F05D91F4B00221A801F4A1D4B5A6079
:102650001C4B1B88012B04D81C4B4FF480525A830F
:1026600003E01A4B4FF480521A83164B1B88232B1E
:1026700027D9144B1A8840F202239A4221D8144BCE
:10268000104A92681A60124B0E4A5268DA60114B77
:10269000104A128892B242F0010292B21A800C4B98
:1026A0000B4A126842F001021A60064B1B8803F0C5
:1026B0000103002B05D0034B5B6803F24112014B71
:1026C0005A6080BD7405002080050020000402408F
:1026D000886402400000014080B500AF0D480E49FB
:1026E000FFF77EFA0346002B12D00A480A49FFF78B
:1026F000CFFA0A4B094A128892B222F0010292B232
:102700001A80044B00221A60054B4FF47F425A8313
:1027100080BD00BF886402400088002000000140A6
:102720000010024080B500AFFFF770FD80BD00BF14
:1027300080B582B000AF78607868FFF7EDFD0023C8
:1027400018460837BD4680BD80B586B000AFF8603A
:10275000B9607A603B6000233B617B6A002B26D026
:10276000BB6A5A007B689A4223DABA68BB6A134490
:102770007B6113E0FA68BB6AD118BA6A1346DB07BB
:102780009B1A5B001A467B681344084679691A460F
:102790003B6AFFF781FD7B6901337B61BA683B6867
:1027A0001A44BB6AD21A7B699A42E3DC01E03B6AB5
:1027B000FB62BB687B6108E0F86879697A68FB6A4C
:1027C000FFF76AFD7B6901337B61BA68BB6A1A4413
:1027D0007B699A42F0DCBA683B681A44BB6AD31A38
:1027E0007B6108E0F86879697A68FB6AFFF754FD55
:1027F0007B6901337B61BA683B681A447B699A4202
:10280000F0DCBA68BB6A13447B6113E0F86879694D
:10281000BA6AFB6AFFF740FDFA687B681A44BB6A34
:10282000D31A18467969BA6AFB6AFFF735FD7B69E6
:1028300001337B61BA683B681A44BB6AD21A7B6970
:102840009A42E3DCF868B96800F0B0FA03463A69E6
:1028500013433B61FA687B6813445A1EB9683B68AE
:102860000B44013B1046194600F0A0FA03463A69B2
:1028700013433B613B6918461837BD4680BD00BF16
:1028800080B588B000AFF860B9607A603B60002323
:102890003B617B685B42FB610023BB617A68134646
:1028A000DB079B1A5B0002337B61BB6A002B20D0E5
:1028B000FA68FB69D018BA68BB69D11AFA6913467D
:1028C000DB079B1A5B0001331A463B68FFF7E4FC09
:1028D000FA68FB69D018BA68BB69D118FA6913465F
:1028E000DB079B1A5B0001331A463B68FFF7D4FCF9
:1028F0002BE0FA68BB691A44B968FB690B441046BF
:1029000019463A68FFF7A2FCFA68FB69D21AB9685F
:10291000BB690B44104619463A68FFF797FCFA6802
:10292000BB69D21AB968FB69CB1A104619463A68D6
:10293000FFF78CFCFA68FB691A44B968BB69CB1ACB
:10294000104619463A68FFF781FC7B697B607A681C
:10295000BB699A4208DCBB690133BB61BB695B00A0
:1029600001337A6913447B617A68FB699A4203DC1C
:102970007A69BB699A4208DDFB690133FB61FB6937
:102980005B0001337A6913447B61FB69002B8CDBAC
:10299000FA687B68D21AB9687B68CB1A1046194668
:1029A00000F004FA03463A6913433B61FA687B6816
:1029B0001A44B9687B680B441046194600F0F6F9D2
:1029C00003463A6913433B613B6918462037BD46CD
:1029D00080BD00BF90B58DB002AFF860B9607A607D
:1029E0003B6000237B62FB6B012B18D1BB6B009318
:1029F000F868B9687A683B6800F05EF9F868B96809
:102A000000F0D4F903467A6A13437B627868396828
:102A100000F0CCF903467A6A13437B62E8E0FB6B73
:102A200007EE903AB8EEE77AF0EE007AC7EE277A32
:102A3000C7ED047AD7ED047AF1EE677AFDEEE77A16
:102A400017EE903A3B620023FB61D7ED047A77EEF4
:102A5000A77AB0EE007A77EE677AFDEEE77A17EEA6
:102A6000903ABB613A6A1346DB079B1A5B0001335D
:102A70007B612EE0FA683B6A1A447B691344581E56
:102A8000BA68FB69D11A7A683B6A1A447B691344B5
:102A90005A1E3C68FB69E31ABC6B009400F00CF909
:102AA000FA683B6A1A447B691344581EBA68FB698A
:102AB000D1187A683B6A1A447B6913445A1E3C68F1
:102AC000FB692344BC6B009400F0F6F87B69013B82
:102AD0007B617B69002BCDDCBB6907EE103AF8EE19
:102AE000C77AC7ED047AFB6907EE903AB8EEE77A49
:102AF000D7ED047AB4EEE77AF1EE10FA08DBFB6961
:102B00000133FB61FB695B000133BA691344BB61AC
:102B10003B6A07EE903AB8EEE77AD7ED047AB4EE66
:102B2000E77AF1EE10FA03D4BA69FB699A4208DD3C
:102B30003B6A01333B623B6A5B000133BA69134471
:102B4000BB613B6A002B8DDBFB6BDA0F13445B1020
:102B5000FA68D21AFB6BD90F0B445B10B968CB1A19
:102B60001046194600F022F903467A6A13437B6245
:102B7000FB6BDA0F13445B101A46FB681A44FB6BBD
:102B8000D90F0B445B101946BB680B44104619461D
:102B900000F00CF903467A6A13437B62FB6BDA0F91
:102BA00013445B107A68D21AFB6BD90F0B445B108D
:102BB0003968CB1A1046194600F0F8F803467A6ACD
:102BC00013437B62FB6BDA0F13445B101A467B687E
:102BD0001A44FB6BD90F0B445B1019463B680B443E
:102BE0001046194600F0E2F803467A6A13437B6206
:102BF0007B6A18462C37BD4690BD00BF80B58AB0B1
:102C000004AFF860B9607A603B6000237B61BB6B06
:102C10000093FB6B019300230293F868B9687A680C
:102C20003B68FFF7D7FE03467A6913437B61BB6BB2
:102C30000093FB6B019300230293786839683A6A2A
:102C40007B6AFFF7C7FE03467A6913437B61BB6B60
:102C50000093FB6B019300230293386A796ABA6A86
:102C6000FB6AFFF7B7FE03467A6913437B61BB6BD0
:102C70000093FB6B019300230293B86AF96A3A6BE5
:102C80007B6BFFF7A7FE03467A6913437B61BB6B3F
:102C90000093FB6B019300230293386B796BFA6806
:102CA000BB68FFF797FE03467A6913437B617B6934
:102CB00018461837BD4680BD2DE9B0438AB000AF35
:102CC000F860B9607A603B607A68FB68D31A18468E
:102CD00000F0C0FB02460B46904623F000494046F8
:102CE000494600F01DFC03463B62FA687B689A4245
:102CF00001DA012301E04FF0FF33FB613A68BB6862
:102D0000D31A184600F0A6FB02460B46144623F0E1
:102D100000452046294600F003FC0346BB61BA6823
:102D20003B689A4201DA012301E04FF0FF337B61F7
:102D30003A6ABB699A4205DCBB695B42DA0F13440D
:102D40005B1003E03B6ADA0F13445B107B62F868A8
:102D5000B9683A6CFFF77AFAFA687B689A4204D14C
:102D6000BA683B689A4200D11CE07B6A3B613B6ACF
:102D70005A423B699A4207DA7A6ABB69D31A7B6284
:102D8000FA68FB691344FB603A69BB699A4208DA46
:102D90007A6A3B6A13447B62BA687B691344BB60FE
:102DA000D5E7D4E72837BD46BDE8B08380B483B00B
:102DB00000AF786039607B68002B09DB7B68B3F576
:102DC000A07F05DA3B68002B02DB3B68EF2B01DDBF
:102DD000202300E0002318460C37BD465DF8047B35
:102DE000704700BF80B58CB000AFF860B9607A6002
:102DF0003B6000237B6200233B627B68192B12D16E
:102E0000BA6B7B68DB0013441B68082B01DD0223CF
:102E100000E00123FB613B6C052B01DD102300E08A
:102E20000823BB612CE0BA6B7B68DB0013441B6892
:102E3000102B02DD0323FB6112E0BA6B7B68DB0021
:102E400013441B68082B09DDBA6B7B68DB00134455
:102E50001B68102B02DC0223FB6101E00123FB61F4
:102E6000BA6B7B680133DB0013445A68B96B7B682B
:102E7000DB000B445B68D21AFB6992FBF3F3BB6186
:102E8000BA6B7B68DB0013445B687B61BB68FB62E9
:102E900038E0FB68BB622BE0FA6B7B6913441B785C
:102EA000BB748023FB7400233B628023FB7413E01C
:102EB000BA7CFB7C1340DBB2002B07D0BA6A3B6ABA
:102EC00013441846F96A3A68FFF7C0F9FB7C5B08BF
:102ED000FB743B6A01333B623B6A082BE8D1BB6A57
:102EE0000833BB627B6A01337B627B6901337B61A0
:102EF000FB69DA00FB681A44BB6A9A42CCDCFB6AC5
:102F00000133FB62BA68BB691A44FB6A9A42C0DCAF
:102F10003037BD4680BD00BF80B487B000AF786059
:102F2000396000237B6100233B6114E03B697A68D0
:102F300013441B78613BFB603B681A68FB68DB004D
:102F400013441B687A6913447B617B6902337B619C
:102F50003B6901333B613B697A6813441B78002B62
:102F6000E4D17B6918461C37BD465DF8047B704789
:102F700080B586B000AFF860B9607A6000237B61ED
:102F8000BB68012B02D17B6906337B61F868094974
:102F900000F0AAFC0346002B02D17B6903337B615E
:102FA0007A697B6813447B617B6918461837BD4694
:102FB00080BD00BF6C5E00082DE9F04397B004AF00
:102FC000F860B9607A603B606B461E46FB6E013B61
:102FD000FB663B6F013B3B6700237B647B6F002BF1
:102FE00001D0FB687B64B86EF96E3A6FFFF7C0FFE3
:102FF000B8635C49BB6B07F11402DB000B4493E838
:10300000030082E80300386800F03AFE03467B6361
:10301000796B4B1E3B630B461A464FF000034FEA99
:10302000C30949EA52794FEAC2080B461A464FF0E3
:103030000003DD0045EA5275D4000B460733DB0878
:10304000DB00ADEB030D04AB0033FB62FB6A1846FB
:10305000396800F0B3FDFB6A1846434901F004F9F2
:10306000386474E0386C00F00BFE0346BB6207F175
:103070001403386C1946FFF74FFF7862FA687B6AD1
:103080001344B3F5A07F0FDD7B6C0233FB607B69DB
:103090001B68082B01DD102300E00823BA681344E5
:1030A000BB60BB680233BB600023FB633CE0FB6B8F
:1030B0003A6C13441B7887F823302C4B1A6897F826
:1030C0002330013313441B7803F00303012B03D196
:1030D00097F82330203301E097F82330613BFB6100
:1030E000FB69002B1EDBFB69192B1BDC6B4607F110
:1030F000140292E8030083E80300BB6B0293F868B4
:10310000B968FA697B68FFF76DFE7A69FB69DB00D5
:1031100013441B680233FA681344FB60FB6B0133F2
:10312000FB6301E0132316E0FA6BBB6A9A42BEDB35
:103130007B691B68082B01DD0A2300E00623FA687F
:103140001344FB600020084901F08EF838643B6CA2
:10315000002B87D10023B54618464C37BD46BDE845
:10316000F08300BFAC040020745E00080C05002052
:1031700080B586B000AFF860B9607A60FB687B61AB
:10318000BA6813469B0013449B0113443B617B6860
:103190001A01064B1344786939691A46FFF7E0F8BB
:1031A000002318461837BD4680BD00BF3C040020F0
:1031B00081F0004102E000BF83F0004330B54FEAE8
:1031C00041044FEA430594EA050F08BF90EA020F55
:1031D0001FBF54EA000C55EA020C7FEA645C7FEAE8
:1031E000655C00F0E2804FEA5454D4EB5555B8BF0B
:1031F0006D420CDD2C4480EA020281EA030382EA7C
:10320000000083EA010180EA020281EA0303362D0D
:1032100088BF30BD11F0004F4FEA01314FF4801CE0
:103220004CEA113102D0404261EB410113F0004FF2
:103230004FEA03334CEA133302D0524263EB4303A9
:1032400094EA050F00F0A780A4F10104D5F1200E47
:103250000DDB02FA0EFC22FA05F2801841F10001A2
:1032600003FA0EF2801843FA05F359410EE0A5F176
:1032700020050EF1200E012A03FA0EFC28BF4CF0A7
:10328000020C43FA05F3C01851EBE37101F000455D
:1032900007D54FF0000EDCF1000C7EEB00006EEB6A
:1032A0000101B1F5801F1BD3B1F5001F0CD34908F4
:1032B0005FEA30004FEA3C0C04F101044FEA44524B
:1032C00012F5800F80F09A80BCF1004F08BF5FEAD2
:1032D000500C50F1000041EB045141EA050130BDB2
:1032E0005FEA4C0C404141EB010111F4801FA4F155
:1032F0000104E9D191F0000F04BF01460020B1FAAA
:1033000081F308BF2033A3F10B03B3F120020CDAE1
:103310000C3208DD02F1140CC2F10C0201FA0CF0BF
:1033200021FA02F10CE002F11402D8BFC2F1200C24
:1033300001FA02F120FA0CFCDCBF41EA0C019040DA
:10334000E41AA2BF01EB0451294330BD6FEA040423
:103350001F3C1CDA0C340EDC04F11404C4F120020E
:1033600020FA04F001FA02F340EA030021FA04F320
:1033700045EA030130BDC4F10C04C4F1200220FA77
:1033800002F001FA04F340EA0300294630BD21FAB5
:1033900004F0294630BD94F0000F83F4801306BF7B
:1033A00081F480110134013D4EE77FEA645C18BF6F
:1033B0007FEA655C29D094EA050F08BF90EA020F06
:1033C00005D054EA000C04BF1946104630BD91EAFE
:1033D000030F1EBF0021002030BD5FEA545C05D101
:1033E0004000494128BF41F0004130BD14F5800440
:1033F0003CBF01F5801130BD01F0004545F0FE41B4
:1034000041F470014FF0000030BD7FEA645C1ABFE8
:10341000194610467FEA655C1CBF0B46024650EA1F
:10342000013406BF52EA033591EA030F41F400214B
:1034300030BD00BF90F0000F04BF0021704730B5D1
:103440004FF4806404F132044FF000054FF00001A6
:1034500050E700BF90F0000F04BF0021704730B567
:103460004FF4806404F1320410F0004548BF40423C
:103470004FF000013EE700BF42004FEAE2014FEA91
:1034800031014FEA02701FBF12F07F4393F07F4F6C
:1034900081F06051704792F0000F14BF93F07F4F9E
:1034A000704730B54FF4607401F0004521F00041E1
:1034B00020E700BF50EA010208BF704730B54FF067
:1034C00000050AE050EA010208BF704730B511F06C
:1034D000004502D5404261EB41014FF4806404F1A4
:1034E00032045FEA915C3FF4DCAE4FF003025FEA26
:1034F000DC0C18BF03325FEADC0C18BF033202EBAE
:10350000DC02C2F1200300FA03FC20FA02F001FA07
:1035100003FE40EA0E0021FA02F11444C1E600BFA6
:103520004FEA410212F5001215D211D56FF47873EB
:10353000B3EB625212D94FEAC12343F0004343EA8E
:10354000505311F0004F23FA02F018BF4042704769
:103550004FF00000704750EA013005D111F00040F3
:1035600008BF6FF0004070474FF00000704700BF89
:103570000A22002100F046BF844641EA000313F00E
:1035800003036DD1403A41D351F8043B40F8043B6A
:1035900051F8043B40F8043B51F8043B40F8043B2D
:1035A00051F8043B40F8043B51F8043B40F8043B1D
:1035B00051F8043B40F8043B51F8043B40F8043B0D
:1035C00051F8043B40F8043B51F8043B40F8043BFD
:1035D00051F8043B40F8043B51F8043B40F8043BED
:1035E00051F8043B40F8043B51F8043B40F8043BDD
:1035F00051F8043B40F8043B51F8043B40F8043BCD
:1036000051F8043B40F8043B403ABDD2303211D36C
:1036100051F8043B40F8043B51F8043B40F8043BAC
:1036200051F8043B40F8043B51F8043B40F8043B9C
:10363000103AEDD20C3205D351F8043B40F8043B6C
:10364000043AF9D2043208D0D2071CBF11F8013B6A
:1036500000F8013B01D30B8803806046704700BF30
:10366000082A13D38B078DD010F003038AD0C3F13F
:103670000403D21ADB071CBF11F8013B00F8013B21
:1036800080D331F8023B20F8023B7BE7043AD9D3E0
:10369000013A11F8013B00F8013BF9D20B780370B5
:1036A0004B7843708B788370604670478842F0B5E2
:1036B0000DD98B1898420AD28118002A51D09A1A33
:1036C00013F8014D01F8014D9342F9D1F0BD0F2AD5
:1036D00048D941EA00039B0746D100F1100401F1EB
:1036E0001003154653F8106C44F8106C53F80C6C2A
:1036F00044F80C6C53F8086C44F8086C103D53F80F
:10370000046C44F8046C0F2D03F1100304F1100451
:10371000E8D8A2F1100323F00F0302F00F0E1033CC
:10372000BEF1030F1944034421D91E1F0D467446F0
:10373000043C55F8047B46F8047F032CF8D8AEF11E
:10374000040424F0030404342344214402F003025B
:1037500062B1013B0A4411F8014B03F8014F8A4260
:10376000F9D1F0BD0346F3E70346F2E7F0BD724638
:10377000EEE700BF70B4840746D0541E002A41D043
:10378000CDB2034602E0621EE4B3144603F8015BC7
:103790009A07F8D1032C2ED9CDB245EA05250F2C76
:1037A00045EA054519D903F110022646103E0F2EB1
:1037B00042F8105C42F80C5C42F8085C42F8045C89
:1037C00002F11002F2D8A4F1100222F00F0204F06C
:1037D0000F041032032C13440DD91E462246043A1E
:1037E000032A46F8045BFAD8221F22F003020432AF
:1037F000134404F003042CB1C9B21C4403F8011BA8
:10380000A342FBD170BC704714460346C2E700BF19
:1038100070B411F0FF0434D085070FD00378002B6B
:103820005AD09C422BD0431C05E013F8012B002AF0
:103830004FD0944223D09A071846F6D10E0206F4D0
:103840007F462643036846EA064601E050F8043FF7
:1038500086EA0305A5F10132A3F1013122EA05024E
:1038600021EA0303134313F0803FEFD0037823B919
:1038700032E010F8013F002B2ED09C42F9D170BCF1
:10388000704784070BD00378002BF8D0431C03E06B
:1038900002780133002AF2D099071846F8D102685D
:1038A000A2F1013323EA020313F0803F08D150F85C
:1038B000042FA2F1013323EA020313F0803FF6D074
:1038C0000378002BDBD010F8013F002BFBD170BC3C
:1038D0007047104670BC7047184670BC704700BFF8
:1038E000A2EB0300704700BF02780B78012A28BFC3
:1038F0009A42F5D16DE9044540EA0104CDE9026739
:103900006FF0000C4FEA447212B380EA010414F025
:10391000070F6AD100F0070420F0070004F0030548
:1039200021F007014FEAC505F0E8042314F0040F65
:10393000F1E804670CFA05F462EA040266EA040698
:103940000AD063EA0403624667EA0407664603E0B6
:10395000F0E80423F1E8046782FA4CF582EA0604F1
:10396000A4FA8CF46CBB83FA4CF583EA0705A5FA3C
:103970008CF595B950E9022351E9026782FA4CF5BA
:1039800082EA0604A4FA8CF483FA4CF583EA07056C
:10399000A5FA8CF52543DBD09CB92DBAB5FA85F490
:1039A00024F0070427FA04F1DDE9026723FA04F39F
:1039B00003F0FF0001F0FF01FDE80445A0EB01006A
:1039C000704724BAB4FA84F424F0070426FA04F108
:1039D000DDE9026722FA04F202F0FF0001F0FF01C4
:1039E000FDE80445A0EB0100704714F0030F3CD143
:1039F00010F0030428D150F8082B51F8083B82FA44
:103A00004CF582EA0305A5FA8CF55DB950F8042C53
:103A100051F8043C82FA4CF582EA0305A5FA8CF5CC
:103A2000002DE8D02DBAB5FA85F424F0070423FA66
:103A300004F122FA04F202F0FF0001F0FF01FDE8B8
:103A40000445A0EB010070474FEAC40420F00300D6
:103A500050F8082B21F0030151F8083B0CFA04F44C
:103A600062EA040263EA0403C9E710F003041AD00F
:103A7000A1EB040120F00300E40750F8042B06D06A
:103A80000FD28B785FFAA2F4E41A06D12BB1CB786F
:103A90005FFAB2F4E41A00D11BB920465DF8104B6E
:103AA000704701F1040150F8042BCC0721F0030109
:103AB00051F8043B48D824D222F07F4482FA4CF5D6
:103AC00094EA1325A5FA8CF50AD165B951F8043B9F
:103AD00084EA0204B4EB036F0ED150F8042BEBE739
:103AE0004FEA132355E035F07F454DD10878FDE8C6
:103AF0000445C0F1000070474FEA126203F0FF0373
:103B000047E002EA1C4482FA4CF594EA1345A5FA10
:103B10008CF50AD165B951F8043B84EA0204B4EB90
:103B2000034F0CD150F8042BEBE74FEA134330E07E
:103B300015EA1C4528D10B884FEA124229E04FEACA
:103B4000124203EA1C4324E002F0FF0482FA4CF51F
:103B500094EA1365A5FA8CF50AD165B951F8043BCE
:103B600084EA0204B4EB032F09D150F8042BEBE7ED
:103B70004FEA13630DE015F0FF0F05D10B684FEA14
:103B8000122223F07F4304E04FF00000FDE80445DB
:103B9000704712BA1BBA82FA4CF482EA0304A4FA00
:103BA0008CF5B5FA85F402FA04F203FA04F34FEA4D
:103BB0001260FDE80445A0EB1360704780EA010243
:103BC000844612F0030F4FD111F0030F32D14DF89C
:103BD000044D11F0040F51F8043B0BD0A3F1013256
:103BE0009A4312F0803F04BF4CF8043B51F8043B69
:103BF00016D100BF51F8044BA3F101329A4312F0E1
:103C0000803FA4F101320BD14CF8043BA24312F0E7
:103C1000803F04BF51F8043B4CF8044BEAD02346E4
:103C20000CF8013B13F0FF0F4FEA3323F8D15DF896
:103C3000044B704711F0010F06D011F8012B0CF85E
:103C4000012B002A08BF704711F0020FBFD031F8D6
:103C5000022B12F0FF0F16BF2CF8022B8CF800205D
:103C600012F47F4FB3D1704711F8012B0CF8012BE0
:103C7000002AF9D1704700BF0000000000000000DA
:103C800090F800F06DE9024520F007016FF0000C9C
:103C900010F0070491F820F040F049804FF0000444
:103CA0006FF00700D1E9002391F840F000F108001F
:103CB00082FA4CF2A4FA8CF283FA4CF3A2FA8CF357
:103CC0004BBBD1E9022382FA4CF200F10800A4FABE
:103CD0008CF283FA4CF3A2FA8CF3E3B9D1E9042312
:103CE00082FA4CF200F10800A4FA8CF283FA4CF349
:103CF000A2FA8CF37BB9D1E9062301F1200182FA03
:103D00004CF200F10800A4FA8CF283FA4CF3A2FA08
:103D10008CF3002BC6D0002A04BF04301A4612BA16
:103D2000B2FA82F2FDE8024500EBD2007047D1E919
:103D3000002304F00305C4F100004FEAC50514F0A8
:103D4000040F91F840F00CFA05F562EA05021CBF79
:103D500063EA050362464FF00004A9E770B40478F3
:103D6000A4B10E7805464EB1B4420AD00A4601E02D
:103D7000A34206D012F8013F002BF9D1281A70BCDB
:103D8000704715F8014F002CEDD1F7E72046F6E714
:103D90002DE9F0414FF0010E744600254FF0FF363B
:103DA0002B198B4200EB06070DD23F5D10F803C0C4
:103DB000BC452DD21D460124C6EB030E2B198B42A8
:103DC00000EB0607F1D34FF00108C2F800E04446CB
:103DD00000254FF0FF372B19994200EB070E0ED943
:103DE0001EF804E010F803C0F44518D91D4601245C
:103DF000C7EB03082B19994200EB070EF0D80137E7
:103E0000701C874224BFC2F800803846BDE8F081AC
:103E10000CD04FF0010E2E4674467544C0E70CD00E
:103E20004FF001082F4644464544D4E7744509BF86
:103E3000A64601341D460124B2E7444509BFA04609
:103E400001341D460124C6E72DE9F04FADF2144DB3
:103E5000164605468B461046194603AA1C46FFF730
:103E600097FF03AB81460DF20C4243F8044F934297
:103E7000FBD14CB1631E324604A812F8011B40F876
:103E8000213013F1FF33F8D203994A4631443046CA
:103E900000F016FB002871D109F1FF330093F318ED
:103EA0008246019323468046544658469A4608EB7C
:103EB0000A073A1A0021284400F0B2FA002858D123
:103EC000002F56D0EB1904AA13F8013C52F8233006
:103ED0004BB124B1039A934201D2C2EB0A03984436
:103EE00000243846E3E74C4523460AF1FF3E38BF3D
:103EF0004B46734513D208EB030216F803C0A85CC7
:103F000084452A4406EB030106D02EE011F801CFC8
:103F100012F8010F844528D101337345F6D34C457F
:103F2000009980F08B80009B019808EB03020378D6
:103F3000A85C83422A4440F08180019B06EB040B7D
:103F400006E013F801ED12F8010D864504D1614633
:103F50009B4501F1FF3CF4D101348C4270D8039CA5
:103F60003846A044C4EB0A04A1E7C9F10102904419
:103F7000B5E700200DF2144DBDE8F08FC9EB040346
:103F80004B4538BF4B46013309F1FF38039306EB2D
:103F9000080358464FF0000ACB4699460AEB04073F
:103FA0003A1A0021284400F03BFA0028E1D1002F02
:103FB000DFD0EB1904AA13F8013C52F82330A3BB5D
:103FC000611E8B4515D20AEB0B0216F80B3015F863
:103FD00002E09E452A4406EB0B005B4606D027E034
:103FE00010F801CF12F801EFF44521D101338B42D3
:103FF000F6D3B8F1FF3F11D00AEB080299F8001090
:10400000AB5C99422A440FD14B4605E013F8010DF1
:1040100012F8011D884207D1B342F7D105EB0A001F
:104020000DF2144DBDE8F08F039B9A443846B5E776
:10403000CBF1010292449A443846AFE749468BE7F8
:1040400005EB080096E700BF0378002B00F0048121
:104050002DE9F04F91F8008085B04446B8F1000F8B
:1040600016D0864601F1010C012703E012F8014B3E
:104070006CB194469C4214BF002707F001071EF85C
:10408000013F6246002BF1D19CF800300BBB17B109
:1040900005B0BDE8F08F0E46054641460130C6EB3F
:1040A0000C04FFF7B5FB074698B1012CF0D0281996
:1040B000874294BFC7EB000B4FF0010B1F2C0CD9AC
:1040C0002346324659463846FFF7BEFE05B0BDE8E6
:1040D000F08F002005B0BDE8F08F03AA21463046DE
:1040E000FFF756FE0399804602463144304600F001
:1040F000E7F9002858D108F1FF330193F3188146FE
:10410000054600935846B2466619321A00213844D3
:1041100000F086F90028DCD1002EDAD0C8454346ED
:1041200038BF4B469C4212D95A191AF80310B85C92
:1041300088423A440AEB030E06D02DE01EF8010F28
:1041400012F8011F884227D101339C42F6D8019B07
:10415000C845194640F28380EA1800980378B85C95
:1041600083423A447BD1009B0AEB090B06E013F82B
:1041700001CD12F801EDF44504D101465B4501F192
:10418000FF30F4D109F10109894557D8039B304626
:104190001D44C3EB0409B7E7C8F1010215441D44EF
:1041A0004FF000093046AFE7C8EB0403434538BF82
:1041B0004346013308F1FF39039306EB09035846E0
:1041C0000025BB469A4667193A1A0021584400F068
:1041D00027F900287FF47DAF002F3FF47AAF4445E4
:1041E00015D908EB050216F808301BF802009842B2
:1041F0005A4406EB0801434606D023E011F801EFCC
:1042000012F8010F86451DD101339C42F6D8B9F151
:10421000FF3F12D005EB09029AF800101BF802309C
:1042200099425A4414D1534605E013F8010D12F88F
:10423000011D88420CD1B342F7D15F46781905B011
:10424000BDE8F08FC8F1010215441D443846BAE7B5
:10425000039B38461D44B6E70B7813B970474146B7
:1042600090E70020704700BF024B1A6801235C32C0
:1042700000F002B838040020F0B420B307460D4621
:1042800017F8016B01E0A64216D015F8014B002C7F
:10429000F9D1EEB13E460C4616F8015B00E073B171
:1042A00014F8013B9D42FAD15DB100233B701660CA
:1042B00006463046F0BC704763B13846DEE7374605
:1042C000E8E72E46F3E710680028D7D10646F0E766
:1042D0001660EEE7176006460370EAE72DE9F04F37
:1042E000474C83460E46D4F800E000E026463446AC
:1042F00014F8015B0EEB0500407800F0080000F0B8
:10430000FF080028F2D12D2D5CD02B2D04BF75782D
:10431000B41C002B3ED0102B60D09A46B8F1000F91
:104320000CBF6FF000404FF000400027B0FBFAF9DF
:10433000BC460AFB19000CE0303DAB4219DD7E1C87
:1043400005D0CC4523D820D00AFB0C5C012714F8FB
:10435000015B0EEB0506767816F0040FECD116F033
:10436000030606D0012E14BF57263726AD1BAB42DD
:10437000E5DC7B1C16D0B8F1000F10D16046002A96
:1043800039D0DFB91160BDE8F08F8542DCDD4FF038
:10439000FF37DCE7302D1AD00A239A46BEE7CCF16E
:1043A000000CEBE7B8F1000F4FF022030CBF6FF0E9
:1043B00000404FF00040CBF80030F2B1611E1160B8
:1043C000BDE8F08FB41C75784FF00108A1E72378A1
:1043D00003F0DF03582B08D008239EE7302D9CD133
:1043E000207800F0DF00582897D14FF0100A657848
:1043F0005346023492E7BDE8F08FBDE8F08F00BF6E
:104400000C05002010B4044C13460A4601462068EF
:104410005DF8044BFFF762BF380400200000000085
:1044200001F0FF01102A2BDB10F0070F08D010F865
:10443000013B013A8B422DD010F0070F42B3F6D169
:10444000F0B441EA012141EA014122F007047FF082
:1044500000070023F0E80256083C85EA010586EAD9
:10446000010685FA47F5A3FA87F586FA47F6A5FA15
:1044700087F68EB9EED1F0BC01F0FF0102F0070221
:1044800032B110F8013B013A83EA010313B1F8D1CC
:104490000020704701387047002D06BF35460338AD
:1044A000073815F0010F07D1013015F4807F02BFE6
:1044B000013015F4C03F0130F0BC0138704700BF37
:1044C000032A70B426D940EA01039B0711D004786F
:1044D0000D78AC4222D10244431C05E013F8014B95
:1044E00011F8015FAC4219D19342F7D1002070BCA2
:1044F00070470C4603461E682568AE4218462146A2
:1045000003F1040304F10404E1D1043A032A184638
:104510002146F0D8002ADAD11046E8E7601B70BCCB
:10452000704700BF564741206B6162656C2069731C
:10453000206E69657420766572626F6E64656E2E9A
:104540000A0D000053637269707420636F6D6D61B2
:104550006E646F206F6E62656B656E642E0D4D6FBD
:1045600067656C696A6B6520636F6D6D616E646F02
:104570002773207A696A6E3A0D092A206C696A6E7F
:104580000D092A20636C65617273636865726D0D35
:10459000092A207265636874686F656B0D092A20AB
:1045A00074656B73740D092A206269746D61700DF6
:1045B000092A206669677575720D092A2063697278
:1045C0006B656C0D000000004E6F2064617461200B
:1045D000726561642E0A0D00506172616D657465CB
:1045E000727320636C65617273637265656E207AA5
:1045F000696A6E206E69657420636F6D706C6565A5
:10460000742E0A0D436F6D6D616E646F2074656D5D
:10461000706C6174652069733A0A0D09636C656199
:104620007273637265656E2C206B6C6575720A0D12
:1046300000000000506172616D6174657273206CDE
:10464000696A6E207A696A6E206E69657420636F8C
:104650006D706C6565742E0A0D436F6D6D616E64CF
:104660006F2074656D706C6174652069733A0A0D12
:10467000096C696A6E2C2078312C2079312C2078D5
:10468000322C2079322C206B6C6575722C20646979
:104690006B74652C206765726573657276656572EB
:1046A000640A0D00506172616D65746572732072E9
:1046B00065636874686F656B207A696A6E206E69DD
:1046C000657420636F6D706C6565742E0A0D436FA1
:1046D0006D6D616E646F2074656D706C61746520C2
:1046E00069733A0A0D097265636874686F656B2CAB
:1046F0002078206C696E6B73626F76656E2C207902
:10470000206C696E6B73626F76656E2C2064696BCA
:1047100074652C20686F6F6774652C206B6C6575F1
:10472000722C20676576756C642C2072616E6464EF
:10473000696B74652C2072616E646B6C6575720AAE
:104740000D000000506172616D65746572732074B4
:10475000657874207A696A6E206E69657420636F6B
:104760006D706C6565742E0A0D436F6D6D616E64BE
:104770006F2074656D706C6174652069733A0A0D01
:104780000974656B73742C2078206C696E6B73628E
:104790006F76656E2C2079206C696E6B73626F7614
:1047A000656E2C206B6C6575722C2074656B737450
:1047B0002C20666F6E742C2067726F6F7474652C7A
:1047C000207374696A6C2C20696E737072696E67ED
:1047D000656E0A0D00000000506172616D657465C0
:1047E0007273206269746D6170207A696A6E206EDE
:1047F00069657420636F6D706C6565742E0A0D4376
:104800006F6D6D616E646F2074656D706C61746541
:104810002069733A0A0D096269746D61702C207801
:10482000206C696E6B73626F76656E2C2079206CDC
:10483000696E6B73626F76656E2C206269746D6150
:10484000706E756D6D657200506172616D65746535
:104850007273207761636874207A696A6E206E696A
:10486000657420636F6D706C6565742E0A0D436FFF
:104870006D6D616E646F2074656D706C6174652020
:1048800069733A0A0D0977616368742C206D696C4D
:104890006C697365636F6E64656E00004F626A6574
:1048A00063742069732062756974656E206865742D
:1048B000206265656C6473636865726D2E0A0D0015
:1048C00044657A65206B6C657572206973206E692A
:1048D0006574206D6F67656C696A6B2E0A0D000048
:1048E0005379737465656D206865656674206565C8
:1048F0006E20676568657567656E2E0A0D0000009D
:10490000506172616D6574657273206369726B6565
:104910006C207A696A6E206E69657420636F6D70B1
:104920006C6565742E0A0D436F6D6D616E646F204A
:1049300074656D706C6174652069733A0A0D096362
:1049400069726B656C2C20782C20792C2072616444
:104950006975732C206B6C6575722C206765767594
:104960006C640A0D00000000506172616D65746531
:10497000727320666967757572207A696A6E206E37
:1049800069657420636F6D706C6565742E0A0D43E4
:104990006F6D6D616E646F2074656D706C617465B0
:1049A0002069733A0A0D096669677575722C20785B
:1049B000312C2079312C2078322C2079322C20781F
:1049C000332C2079332C2078342C2079342C207807
:1049D000352C2079352C206B6C6575722C20646920
:1049E0006B74650A0D0000000000000030313233A6
:1049F00034353637383900002C000000090A0B0C1A
:104A00000D2000006C696A6E00000000636C656137
:104A10007273636865726D007265636874686F6550
:104A20006B00000074656B73740000006269746D44
:104A30006170000066696775757200006369726B6A
:104A4000656C00007A77617274000000626C6175B9
:104A5000770000006C69636874626C6175770000B0
:104A600067726F656E0000006C6963687467726FCF
:104A7000656E0000637961616E0000006C696368B7
:104A800074637961616E0000726F6F6400000000F2
:104A90006C69636874726F6F640000006D616765B4
:104AA0006E7461006C696368746D6167656E7461D2
:104AB00000000000627275696E0000006765656C39
:104AC000000000006772696A730000007769740073
:104AD000726F7A65000000006E6F726D61616C002C
:104AE000766574006375727369656600FFFFFFFF8A
:104AF000FFFFFFFFFFFFFFFF0000000000000000BE
:104B0000FFFFFFFFFFFFFFFFFFFFFFFFFFFFFFFFB5
:104B1000FFFFFFFFFFFFFFFF00000000000000009D
:104B2000FFFFFFFFFFFFFFFFFFFFFFFFFFFFFFFF95
:104B3000FFFFFFFF00000000FCFCFCFCFCFCFCFC99
:104B400000000000FFFFFFFFFFFFFFFFFFFFFFFF71
:104B5000FFFFFFFF00000000FCFCFCFCFCFCFCFC79
:104B600000000000FFFFFFFFFFFFFFFFFFFFFFFF51
:104B7000FFFF0000FCFCFCFCFCFCFCFCFCFCFCFC67
:104B8000FCFCFCFC0000FFFFFFFFFFFFFFFFFFFF3F
:104B9000FFFF0000FCFCFCFCFCFCFCFCFCFCFCFC47
:104BA000FCFCFCFC0000FFFFFFFFFFFFFFFFFFFF1F
:104BB0000000FCFCFCFCFCFCFCFCFCFCFCFCFCFC2D
:104BC000FCFCFCFCFCFC0000FFFFFFFFFFFFFFFF05
:104BD0000000FCFCFCFCFCFCFCFCFCFCFCFCFCFC0D
:104BE000FCFCFCFCFCFC0000FFFFFFFFFFFF0000E3
:104BF000FCFCFCFCFCFC0000FCFCFCFCFCFCFCFCED
:104C00000000FCFCFCFCFCFC0000FFFFFFFF0000C0
:104C1000FCFCFCFCFC00000000FCFCFCFCFCFC00C0
:104C2000000000FCFCFCFCFC0000FFFFFFFF00009C
:104C3000FCFCFCFC000000000000FCFCFCFC000094
:104C400000000000FCFCFCFC0000FFFFFFFF000078
:104C5000FCFCFCFC000000000000FCFCFCFC000074
:104C600000000000FCFCFCFC0000FFFF0000FCFC5E
:104C7000FCFCFCFCFC00000000FCFCFCFCFCFC0060
:104C8000000000FCFCFCFCFCFCFC00000000FCFC48
:104C9000FCFCFCFCFCFC0000FCFCFCFCFCFCFCFC4C
:104CA0000000FCFCFCFCFCFCFCFC00000000FCFC2C
:104CB000FCFCFCFCFCFCFCFCFCFCFCFCFCFCFCFC34
:104CC000FCFCFCFCFCFCFCFCFCFC00000000FCFC14
:104CD000FCFCFCFCFCFCFCFCFCFCFCFCFCFCFCFC14
:104CE000FCFCFCFCFCFCFCFCFCFC00000000FCFCF4
:104CF000FCFCFCFCFCFCFCFCFCFCFCFCFCFCFCFCF4
:104D0000FCFCFCFCFCFCFCFCFCFC00000000FCFCD3
:104D1000FCFCFCFCFCFCFCFCFCFCFCFCFCFCFCFCD3
:104D2000FCFCFCFCFCFCFCFCFCFC00000000FCFCB3
:104D3000FCFCFCFCFCFCFCFCFCFCFCFCFCFCFCFCB3
:104D4000FCFCFCFCFCFCFCFCFCFC00000000FCFC93
:104D5000FCFCFCFCFCFCFCFCFCFCFCFCFCFCFCFC93
:104D6000FCFCFCFCFCFCFCFCFCFC0000FFFF00006D
:104D7000FCFCFCFCFC0000FCFCFCFCFCFCFCFCFC6B
:104D8000FC0000FCFCFCFCFC0000FFFFFFFF00003F
:104D9000FCFCFCFCFC000000FCFCFCFCFCFCFCFC47
:104DA000000000FCFCFCFCFC0000FFFFFFFF00001B
:104DB000FCFCFCFCFCFC000000000000000000000B
:104DC0000000FCFCFCFCFCFC0000FFFFFFFF0000FF
:104DD000FCFCFCFCFCFCFC000000000000000000EF
:104DE00000FCFCFCFCFCFCFC0000FFFFFFFFFFFFE5
:104DF0000000FCFCFCFCFCFCFCFCFCFCFCFCFCFCEB
:104E0000FCFCFCFCFCFC0000FFFFFFFFFFFFFFFFC2
:104E10000000FCFCFCFCFCFCFCFCFCFCFCFCFCFCCA
:104E2000FCFCFCFCFCFC0000FFFFFFFFFFFFFFFFA2
:104E3000FFFF0000FCFCFCFCFCFCFCFCFCFCFCFCA4
:104E4000FCFCFCFC0000FFFFFFFFFFFFFFFFFFFF7C
:104E5000FFFF0000FCFCFCFCFCFCFCFCFCFCFCFC84
:104E6000FCFCFCFC0000FFFFFFFFFFFFFFFFFFFF5C
:104E7000FFFFFFFF00000000FCFCFCFCFCFCFCFC56
:104E800000000000FFFFFFFFFFFFFFFFFFFFFFFF2E
:104E9000FFFFFFFF00000000FCFCFCFCFCFCFCFC36
:104EA00000000000FFFFFFFFFFFFFFFFFFFFFFFF0E
:104EB000FFFFFFFFFFFFFFFF0000000000000000FA
:104EC000FFFFFFFFFFFFFFFFFFFFFFFFFFFFFFFFF2
:104ED000FFFFFFFFFFFFFFFF0000000000000000DA
:104EE000FFFFFFFFFFFFFFFFFFFFFFFFFFFFFFFFD2
:104EF000FFFFFFFFFFFFFFFF0000000000000000BA
:104F0000FFFFFFFFFFFFFFFFFFFFFFFFFFFFFFFFB1
:104F1000FFFFFFFFFFFFFFFF000000000000000099
:104F2000FFFFFFFFFFFFFFFFFFFFFFFFFFFFFFFF91
:104F3000FFFFFFFF00000000FCFCFCFCFCFCFCFC95
:104F400000000000FFFFFFFFFFFFFFFFFFFFFFFF6D
:104F5000FFFFFFFF00000000FCFCFCFCFCFCFCFC75
:104F600000000000FFFFFFFFFFFFFFFFFFFFFFFF4D
:104F7000FFFF0000FCFCFCFCFCFCFCFCFCFCFCFC63
:104F8000FCFCFCFC0000FFFFFFFFFFFFFFFFFFFF3B
:104F9000FFFF0000FCFCFCFCFCFCFCFCFCFCFCFC43
:104FA000FCFCFCFC0000FFFFFFFFFFFFFFFFFFFF1B
:104FB0000000FCFCFCFCFCFCFCFCFCFCFCFCFCFC29
:104FC000FCFCFCFCFCFC0000FFFFFFFFFFFFFFFF01
:104FD0000000FCFCFCFCFCFCFCFCFCFCFCFCFCFC09
:104FE000FCFCFCFCFCFC0000FFFFFFFFFFFF0000DF
:104FF000FCFCFCFCFCFC0000FCFCFCFCFCFCFCFCE9
:105000000000FCFCFCFCFCFC0000FFFFFFFF0000BC
:10501000FCFCFCFCFC00000000FCFCFCFCFCFC00BC
:10502000000000FCFCFCFCFC0000FFFFFFFF000098
:10503000FCFCFCFC000000000000FCFCFCFC000090
:1050400000000000FCFCFCFC0000FFFFFFFF000074
:10505000FCFCFCFC000000000000FCFCFCFC000070
:1050600000000000FCFCFCFC0000FFFF0000FCFC5A
:10507000FCFCFCFCFC00000000FCFCFCFCFCFC005C
:10508000000000FCFCFCFCFCFCFC00000000FCFC44
:10509000FCFCFCFCFCFC0000FCFCFCFCFCFCFCFC48
:1050A0000000FCFCFCFCFCFCFCFC00000000FCFC28
:1050B000FCFCFCFCFCFCFCFCFCFCFCFCFCFCFCFC30
:1050C000FCFCFCFCFCFCFCFCFCFC00000000FCFC10
:1050D000FCFCFCFCFCFCFCFCFCFCFCFCFCFCFCFC10
:1050E000FCFCFCFCFCFCFCFCFCFC00000000FCFCF0
:1050F000FCFCFCFCFCFCFCFCFCFCFCFCFCFCFCFCF0
:10510000FCFCFCFCFCFCFCFCFCFC00000000FCFCCF
:10511000FCFCFCFCFCFCFCFCFCFCFCFCFCFCFCFCCF
:10512000FCFCFCFCFCFCFCFCFCFC00000000FCFCAF
:10513000FCFCFCFCFCFCFCFCFCFCFCFCFCFCFCFCAF
:10514000FCFCFCFCFCFCFCFCFCFC00000000FCFC8F
:10515000FCFCFCFCFCFCFC0000000000000000006B
:1051600000FCFCFCFCFCFCFCFCFC0000FFFF000065
:10517000FCFCFCFCFCFC0000000000000000000047
:105180000000FCFCFCFCFCFC0000FFFFFFFF00003B
:10519000FCFCFCFCFC000000FCFCFCFCFCFCFCFC43
:1051A000000000FCFCFCFCFC0000FFFFFFFF000017
:1051B000FCFCFCFCFC0000FCFCFCFCFCFCFCFCFC27
:1051C000FC0000FCFCFCFCFC0000FFFFFFFF0000FB
:1051D000FCFCFCFCFCFCFCFCFCFCFCFCFCFCFCFC0F
:1051E000FCFCFCFCFCFCFCFC0000FFFFFFFFFFFFE5
:1051F0000000FCFCFCFCFCFCFCFCFCFCFCFCFCFCE7
:10520000FCFCFCFCFCFC0000FFFFFFFFFFFFFFFFBE
:105210000000FCFCFCFCFCFCFCFCFCFCFCFCFCFCC6
:10522000FCFCFCFCFCFC0000FFFFFFFFFFFFFFFF9E
:10523000FFFF0000FCFCFCFCFCFCFCFCFCFCFCFCA0
:10524000FCFCFCFC0000FFFFFFFFFFFFFFFFFFFF78
:10525000FFFF0000FCFCFCFCFCFCFCFCFCFCFCFC80
:10526000FCFCFCFC0000FFFFFFFFFFFFFFFFFFFF58
:10527000FFFFFFFF00000000FCFCFCFCFCFCFCFC52
:1052800000000000FFFFFFFFFFFFFFFFFFFFFFFF2A
:10529000FFFFFFFF00000000FCFCFCFCFCFCFCFC32
:1052A00000000000FFFFFFFFFFFFFFFFFFFFFFFF0A
:1052B000FFFFFFFFFFFFFFFF0000000000000000F6
:1052C000FFFFFFFFFFFFFFFFFFFFFFFFFFFFFFFFEE
:1052D000FFFFFFFFFFFFFFFF0000000000000000D6
:1052E000FFFFFFFFFFFFFFFFFFFFFFFFFFFFFFFFCE
:1052F000FFFFFFFFFFFFFFFF0000000000000000B6
:10530000FFFFFFFFFFFFFFFFFFFFFFFFFFFFFFFFAD
:10531000FFFFFFFFFFFFFFFF000000000000000095
:10532000FFFFFFFFFFFFFFFFFFFFFFFFFFFFFFFF8D
:10533000FFFFFFFF00000000FCFCFCFCFCFCFCFC91
:1053400000000000FFFFFFFFFFFFFFFFFFFFFFFF69
:10535000FFFFFFFF00000000FCFCFCFCFCFCFCFC71
:1053600000000000FFFFFFFFFFFFFFFFFFFFFFFF49
:10537000FFFF0000FCFCFCFCFCFCFCFCFCFCFCFC5F
:10538000FCFCFCFC0000FFFFFFFFFFFFFFFFFFFF37
:10539000FFFF0000FCFCFCFCFCFCFCFCFCFCFCFC3F
:1053A000FCFCFCFC0000FFFFFFFFFFFFFFFFFFFF17
:1053B0000000FCFCFCFCFCFCFCFCFCFCFCFCFCFC25
:1053C000FCFCFCFCFCFC0000FFFFFFFFFFFFFFFFFD
:1053D0000000FCFCFCFCFCFCFCFCFCFCFCFCFCFC05
:1053E000FCFCFCFCFCFC0000FFFFFFFFFFFF0000DB
:1053F000FCFCFCFCFCFCFCFCFCFCFCFCFCFCFCFCED
:10540000FCFCFCFCFCFCFCFC0000FFFFFFFF0000C0
:10541000FCFCFC00000000000000FCFCFCFC0000A8
:105420000000000000FCFCFC0000FFFFFFFF00008C
:1054300000000000000000000000FCFCFCFC00007C
:1054400000000000000000000000FFFFFFFF000060
:10545000FCFCFC0000000000000000000000000058
:105460000000000000FCFCFC0000FFFF0000FCFC52
:10547000FCFCFC00000000000000FCFCFCFC000048
:105480000000000000FCFCFCFCFC00000000FCFC38
:10549000FCFCFC00000000000000FCFCFCFC000028
:1054A0000000000000FCFCFCFCFC00000000FCFC18
:1054B000FCFCFCFC0000000000FCFCFCFCFCFC0014
:1054C00000000000FCFCFCFCFCFC00000000FCFCFC
:1054D000FCFCFCFCFCFCFCFCFCFCFCFCFCFCFCFC0C
:1054E000FCFCFCFCFCFCFCFCFCFC00000000FCFCEC
:1054F000FCFCFCFCFCFCFCFCFCFCFCFCFCFCFCFCEC
:10550000FCFCFCFCFCFCFCFCFCFC00000000FCFCCB
:10551000FCFCFCFCFCFCFCFCFCFCFCFCFCFCFCFCCB
:10552000FCFCFCFCFCFCFCFCFCFC00000000FCFCAB
:10553000FCFCFCFC0000FCFCFCFCFCFCFCFCFCFCA3
:10554000FCFC0000FCFCFCFCFCFC00000000FCFC83
:10555000FCFCFCFC0000FCFCFCFCFCFCFCFCFCFC83
:10556000FCFC0000FCFCFCFCFCFC0000FFFF00005D
:10557000FCFCFCFCFCFC0000FCFCFCFCFCFCFCFC63
:105580000000FCFCFCFCFCFC0000FFFFFFFF000037
:10559000FCFCFCFCFCFC0000FCFCFCFCFCFCFCFC43
:1055A0000000FCFCFCFCFCFC0000FFFFFFFF000017
:1055B000FCFCFCFCFCFCFCFC00000000000000000B
:1055C000FCFCFCFCFCFCFCFC0000FFFFFFFF0000FF
:1055D000FCFCFCFCFCFCFCFC0000000000000000EB
:1055E000FCFCFCFCFCFCFCFC0000FFFFFFFFFFFFE1
:1055F0000000FCFCFCFCFCFCFCFCFCFCFCFCFCFCE3
:10560000FCFCFCFCFCFC0000FFFFFFFFFFFFFFFFBA
:105610000000FCFCFCFCFCFCFCFCFCFCFCFCFCFCC2
:10562000FCFCFCFCFCFC0000FFFFFFFFFFFFFFFF9A
:10563000FFFF0000FCFCFCFCFCFCFCFCFCFCFCFC9C
:10564000FCFCFCFC0000FFFFFFFFFFFFFFFFFFFF74
:10565000FFFF0000FCFCFCFCFCFCFCFCFCFCFCFC7C
:10566000FCFCFCFC0000FFFFFFFFFFFFFFFFFFFF54
:10567000FFFFFFFF00000000FCFCFCFCFCFCFCFC4E
:1056800000000000FFFFFFFFFFFFFFFFFFFFFFFF26
:10569000FFFFFFFF00000000FCFCFCFCFCFCFCFC2E
:1056A00000000000FFFFFFFFFFFFFFFFFFFFFFFF06
:1056B000FFFFFFFFFFFFFFFF0000000000000000F2
:1056C000FFFFFFFFFFFFFFFFFFFFFFFFFFFFFFFFEA
:1056D000FFFFFFFFFFFFFFFF0000000000000000D2
:1056E000FFFFFFFFFFFFFFFFFFFFFFFFFFFFFFFFCA
:1056F000FFFFFF00FFFFFFFFFFFFFFFFFFFFFFFFB9
:10570000FF000000FFFFFFFFFFFFFFFFFFFFFFFFA6
:10571000000000FFFFFFFFFFFFFFFFFFFFFF000094
:10572000000000FFFFFFFFFFFFFFFFFFFF00000083
:105730000000FFFFFFFFFFFFFFFFFF000000000072
:105740000000FFFFFFFFFFFFFFFF00000000000061
:1057500000FFFFFFFFFFFFFF000000000000000050
:1057600000FFFFFFFFFFFF0000000000000000003F
:10577000FFFFFFFFFF00000000000000000000002E
:10578000FFFFFFFF0000000000000000000000FF1E
:10579000FFFF00000000000000000000000000FF0C
:1057A000FF00000000000000000000000000FF00FB
:1057B00000000000000000000000000000000000E9
:1057C00000000000000000000000000000FFFFFFDC
:1057D000FFFFFF000000FFFFFFFFFFFFFFFFFFFFD6
:1057E000FFFF000000FFFFFFFFFFFFFFFFFFFFFFC6
:1057F000FF000000FFFFFFFFFFFFFFFFFFFFFFFFB6
:10580000000000FFFFFFFFFFFFFFFFFFFFFFFF00A4
:105810000000FFFFFFFFFFFFFFFFFFFFFFFF000094
:1058200000FFFFFFFFFFFFFFFFFFFFFFFF00000084
:10583000FFFFFFFFFFFFFFFFFFFFFFFF000000FF75
:10584000FFFFFFFFFFFFFFFFFFFFFF000000FFFF65
:10585000FFFFFFFFFFFFFFFFFFFF000000FFFFFF55
:10586000FFFFFFFFFFFFFFFFFF000000FFFFFFFF45
:10587000FFFFFFFFFFFFFFFF000000FFFFFFFFFF35
:10588000FFFFFFFFFFFFFF000000FFFFFFFFFFFF25
:10589000FFFFFFFFFFFF000000FFFFFFFFFFFFFF15
:1058A000FFFFFFFFFF000000FFFFFFFFFFFFFFFF05
:1058B000FFFFFFFF000000FFFFFFFFFFFFFFFFFFF5
:1058C000FFFFFF000000FFFFFFFFFFFFFFFFFFFFE5
:1058D000FFFF000000FFFFFFFFFFFFFFFFFFFFFFD5
:1058E000FF000000FFFFFFFFFFFFFFFFFFFFFFFFC5
:1058F000000000FFFFFFFFFFFFFFFFFFFFFFFF00B4
:105900000000FFFFFFFFFFFFFFFFFFFFFFFF0000A3
:1059100000FFFFFFFFFFFFFFFFFFFFFFFF00000093
:10592000FFFFFFFFFFFFFFFFFFFFFFFF000000FF84
:10593000FFFFFFFFFFFFFFFFFFFFFF000000FFFF74
:10594000FFFFFFFFFFFFFFFFFFFF000000FFFFFF64
:10595000FFFFFFFFFFFFFFFFFF000000FFFFFFFF54
:10596000FFFFFFFFFFFFFFFF000000FFFFFFFFFF44
:10597000FFFFFFFFFFFFFF000000FFFFFFFFFFFF34
:10598000FFFFFFFFFFFF000000FFFFFFFFFFFFFF24
:10599000FFFFFFFFFF000000FFFFFFFFFFFFFFFF14
:1059A000FFFFFFFF000000FFFFFFFFFFFFFFFFFF04
:1059B000FFFFFF000000FFFFFFFFFFFFFFFFFFFFF4
:1059C000FFFF000000FFFFFFFFFFFF0000000000DF
:1059D00000000000000000000000000000000000C7
:1059E000000000000000000000FF000000000000B8
:1059F00000000000000000FFFF00000000000000A9
:105A0000000000000000FFFFFF0000000000000099
:105A100000000000FFFFFFFF00000000000000008A
:105A2000000000FFFFFFFFFF00000000000000007B
:105A300000FFFFFFFFFFFF0000000000000000006C
:105A4000FFFFFFFFFFFFFF00000000000000FFFF5F
:105A5000FFFFFFFFFFFF00000000000000FFFFFF4F
:105A6000FFFFFFFFFFFF0000000000FFFFFFFFFF41
:105A7000FFFFFFFFFF0000000000FFFFFFFFFFFF31
:105A8000FFFFFFFFFF000000FFFFFFFFFFFFFFFF23
:105A9000FFFFFFFF000000FFFFFFFFFFFFFFFFFF13
:105AA000FFFFFFFF00FFFFFFFFFFFFFFFFFFFFFF05
:105AB000FFFFFFFFFFFFFFFFFFFFFFFFFF0000FFF4
:105AC000FFFFFFFFFFFFFFFFFFFFFFFFFFFFFFFFE6
:105AD000FFFFFFFFFFFFFFFFFFFFFFFFFF000000D3
