:020000040800F2
:10000000B00D002095050008F1050008F105000875
:10001000F1050008F1050008F105000800000000E6
:10002000000000000000000000000000F1050008D2
:10003000F105000800000000F1050008F1050008C6
:10004000F1050008F1050008F1050008F1050008B8
:10005000F1050008F1050008F1050008F1050008A8
:10006000F1050008F1050008F1050008F105000898
:10007000F1050008F1050008F1050008F105000888
:10008000F1050008F1050008F1050008F105000878
:10009000F1050008F1050008F1050008F105000868
:1000A000F1050008F1050008F1050008F105000858
:1000B000F1050008F1050008F1050008F105000848
:1000C000F1050008F1050008F1050008F105000838
:1000D000F1050008F1050008F1050008F105000828
:1000E000F1050008F1050008F1050008F105000818
:1000F000F1050008F1050008F1050008F105000808
:10010000F1050008F1050008F1050008F1050008F7
:10011000F1050008F1050008F1050008F1050008E7
:10012000F1050008F1050008F1050008F1050008D7
:10013000F1050008F1050008F1050008F1050008C7
:10014000F1050008F1050008F1050008F1050008B7
:10015000F1050008F1050008F1050008F1050008A7
:10016000F1050008F1050008F1050008F105000897
:10017000F1050008F1050008F1050008F105000887
:10018000F1050008F105000880B588B000AF78607F
:1001900001214FF4003000F019FB0121012000F093
:1001A000F7FA0C23BB6102233B770023BB770123C3
:1001B000FB7702237B7707F118031946164800F0F6
:1001C00023FB07220221144800F0ABFB0722032186
:1001D000114800F0A6FB7B68BB600023BB810023B5
:1001E000FB8100233B820023BB820C237B8207F12F
:1001F00008031946094800F081F8012240F2255110
:10020000064800F065F90121044800F031F900BF0B
:100210002037BD4680BD00BF0000024000440040C2
:1002200080B582B000AF0346FB7100BF8021084853
:1002300000F095F90346002BF8D0FB799BB21946E4
:10024000034800F034F900BF0837BD4680BD00BF49
:100250000044004080B584B000AF78600023FB60AC
:1002600009E0FB687A6813441B781846FFF7D8FF4B
:10027000FB680133FB60FB687A6813441B78002B32
:10028000EFD100BF1037BD4680BD000080B584B0FF
:1002900000AF786039604FF0FF33FB600A4978683F
:1002A00000F08CFB0346002B06D000233B607868EF
:1002B00000F080FB034602E010233B60FB68184619
:1002C0001037BD4680BD00BF140C000880B584B057
:1002D00000AFF860B9607A600749F86800F090FBF9
:1002E000B860BB68002B02D110237B6001E00023C3
:1002F0007B601037BD4680BD200C000880B58AB0F9
:1003000000AF7860396000237B6200233B620023EA
:10031000FB610023BB617B681B8A9BB27B627B6AAB
:1003200023F440537B623B68DB881A467B6A1343A5
:100330007B627B6A9AB27B681A827B689B899BB2DC
:100340007B627B6A23F4B05323F00C037B623B682F
:100350009A883B681B8913439AB23B685B891343B5
:100360009BB21A467B6A13437B627B6A9AB27B68B4
:100370009A817B689B8A9BB27B627B6A23F4407381
:100380007B623B689B891A467B6A13437B627B6A6C
:100390009AB27B689A8207F10803184600F050F978
:1003A0007B68304A934203D07B682F4A934202D144
:1003B0007B693B6201E03B693B627B689B899BB246
:1003C0001BB2002B0CDA3A6A13469B0013449A00C6
:1003D0001A443B681B685B00B2FBF3F3FB610BE064
:1003E0003A6A13469B0013449A001A443B681B6800
:1003F0009B00B2FBF3F3FB61FB691C4AA2FB0323E6
:100400005B091B017B627B6A1B09642202FB03F30D
:10041000FA69D31ABB617B689B899BB21BB2002B24
:100420000CDABB69DB003233104AA2FB03235B0901
:1004300003F007037A6A13437B620BE0BB691B017D
:1004400032330A4AA2FB03235B0903F00F037A6AE3
:1004500013437B627B6A9AB27B681A8100BF28379C
:10046000BD4680BD00100140001401401F85EB51C6
:1004700080B483B000AF78600B46FB70FB78002B34
:1004800008D07B689B899BB243F400539AB27B6887
:100490009A8107E07B689B899BB223F400539AB250
:1004A0007B689A8100BF0C37BD4680BC704780B422
:1004B00083B000AF78600B467B807B88C3F3080372
:1004C0009AB27B689A8000BF0C37BD4680BC7047EB
:1004D00080B487B000AF78600B467B8013467B709A
:1004E00000233B610023FB600023BB6000237B6192
:1004F0007B687B617B88DBB25B09DBB23B617B881D
:1005000003F01F03FB600122FB6802FA03F3BB60E8
:100510003B69012B03D17B690C337B6109E03B69AB
:10052000022B03D17B6910337B6102E07B691433BA
:100530007B617B78002B06D07B6919687B69BA6880
:100540000A431A6006E07B691968BB68DA437B6975
:100550000A401A6000BF1C37BD4680BC704780B49B
:1005600085B000AF78600B467B800023FB737B680F
:100570001B889AB27B8813409BB2002B02D00123C8
:10058000FB7301E00023FB73FB7B18461437BD4669
:1005900080BC704780B582B000AF104B7B60104BC1
:1005A0003B6007E07A68131D7B603B68191D39606A
:1005B00012681A603B680B4A9342F3D30A480B490E
:1005C0004FF000028842B8BF40F8042BFADB00F07D
:1005D00013F800BF0837BD4680BD00BF550D0008A9
:1005E00000000020A8050020A8050020B00500207C
:1005F00080B400AFFEE7000080B582B000AF4FF4DA
:100600001650FFF7C1FD0948FFF724FE084B1B6891
:1006100019460848FFF73AFE7860074B1968044B03
:100620001B681A460548FFF751FEFEE7240C000838
:10063000A80500202C0C0008AC050020300C000898
:1006400080B489B000AF78600023BB6100237B6178
:100650000023FB6102233B610023FB600223BB609C
:10066000474B9B6803F00C03BB61BB69042B07D0AD
:10067000082B09D0002B3DD17B68424A1A603DE02F
:100680007B68414A1A6039E03D4B5B689B0D03F083
:100690000103FB603A4B5B6803F03F03BB60FB6800
:1006A000002B0CD0384ABB68B2FBF3F3344A5268D3
:1006B0009209C2F3080202FB03F3FB610BE0314A2B
:1006C000BB68B2FBF3F32E4A52689209C2F30802E8
:1006D00002FB03F3FB612A4B5B681B0C03F0030373
:1006E00001335B003B61FA693B69B2FBF3F27B6863
:1006F0001A6003E07B68234A1A6000BF204B9B68A6
:1007000003F0F003BB61BB691B09BB611F4ABB69F6
:1007100013441B78DBB27B617B681A687B69DA4023
:100720007B685A60164B9B6803F4E053BB61BB695E
:100730009B0ABB61154ABB6913441B78DBB27B6122
:100740007B685A687B69DA407B689A600C4B9B68CF
:1007500003F46043BB61BB695B0BBB610B4ABB69C4
:1007600013441B78DBB27B617B685A687B69DA4093
:100770007B68DA6000BF2437BD4680BC704700BF8D
:10078000003802400024F40040787D010000002081
:1007900080B483B000AF78600B46FB70FB78002B11
:1007A00006D0094B1A6B08497B6813430B6306E0BC
:1007B000054B1A6B7B68DB43034913400B6300BF97
:1007C0000C37BD4680BC70470038024080B483B00F
:1007D00000AF78600B46FB70FB78002B06D0094B0E
:1007E0001A6C08497B6813430B6406E0054B1A6CCE
:1007F0007B68DB43034913400B6400BF0C37BD46E5
:1008000080BC70470038024080B487B000AF786089
:10081000396000237B6100233B610023FB600023E0
:100820007B6176E001227B6902FA03F33B613B685E
:100830001B683A691340FB60FA683B699A4265D1CC
:100840007B681A687B695B00032101FA03F3DB43D1
:100850001A407B681A607B681A683B681B791946E6
:100860007B695B0001FA03F31A437B681A603B68FB
:100870001B79012B03D03B681B79022B2ED17B689F
:100880009A687B695B00032101FA03F3DB431A409A
:100890007B689A607B689A683B685B7919467B69DC
:1008A0005B0001FA03F31A437B689A607B685A681D
:1008B0007B699BB2194601238B40DB431A407B685E
:1008C0005A607B685B683A68927911467A6992B29D
:1008D00001FA02F292B21A437B685A607B68DA68C6
:1008E0007B699BB25B00032101FA03F3DB431A40EF
:1008F0007B68DA607B68DA683B68DB7919467B697C
:100900005B0001FA03F31A437B68DA607B69013309
:100910007B617B690F2B85D900BF1C37BD4680BC2E
:10092000704780B485B000AF78600B467B8013467B
:100930007B700023FB600023BB607A787B8803F028
:1009400007039B0002FA03F3FB607B88DB089BB282
:100950001A467B68083253F822207B8803F007038D
:100960009B000F2101FA03F3DB437988C90889B2A0
:10097000084602EA03017B6800F1080243F82210EE
:100980007B88DB089BB21A467B68083253F822301A
:10099000FA681343BB607B88DB089BB21A467B680E
:1009A0000832B96843F8221000BF1437BD4680BC36
:1009B000704700000A22002100F0EEB830B404783D
:1009C000DCB10D789DB1AC420FD00A4601E09C42EB
:1009D0000BD012F8013F002BF9D110F8014F002C79
:1009E000F0D11378002B08BF002030BC704710F8FE
:1009F000014F0A46002CE5D1F3E72046F5E700BF9A
:100A0000024B1A6801235C3200F002B8380400205F
:100A1000F0B420B307460D4617F8016B01E0A6427B
:100A200016D015F8014B002CF9D1EEB13E460C461C
:100A300016F8015B00E073B114F8013B9D42FAD156
:100A40005DB100233B70166006463046F0BC70472F
:100A500063B13846DEE73746E8E72E46F3E710682D
:100A60000028D7D10646F0E71660EEE71760064685
:100A70000370EAE72DE9F84F0E468046174699467F
:100A80000D4600E025462C460A9814F801BB00F0FC
:100A900099F85844417811F00801F3D1BBF12D0FBA
:100AA00057D0BBF12B0F04BF95F801B0AC1CB9F1C6
:100AB000000F04D0B9F1100F50D0CC4605E0BBF1C7
:100AC000300F55D04FF00A09CC4600290CBF6FF00B
:100AD000004E4FF0004E0025BEFBFCF328460CFBF9
:100AE00013EA05E029D00CFB0020012514F801BB16
:100AF000ABF13002092A05D9ABF14102192A0BD812
:100B0000ABF1370291450FDDB5F1FF3FEED08342E7
:100B1000E8D24FF0FF35E9E7ABF16102192A03D8BB
:100B2000ABF157029145EFDC6B1C0BD001B1404299
:100B30000FB14DBB3E60BDE8F88F9245D3DA4FF060
:100B4000FF35D3E72223C8F80030FFB1661E704698
:100B5000F0E7AC1C95F801B00121A8E7BBF1300F1C
:100B6000ABD1237803F0DF03582B06D0CC46ACE79B
:100B7000237803F0DF03582B0AD14FF0100C94F8C0
:100B800001B0E1460234A0E78646DFE77046D2E7CF
:100B90004FF00809CC4698E730B5084C084B25685B
:100BA0006C6B83B0002C08BF1C46009413460A46A9
:100BB00001462846FFF75EFF03B030BD3804002031
:100BC0003C040020D0F8EC00704700BF82B049B16F
:100BD0005AB16BB113780B601278101C18BF01204A
:100BE00002B0704701A9002AF3D1104602B0704745
:100BF0006FF00100F4E700BF21B1FF2A04D80A70AA
:100C000001207047084670478A2303604FF0FF3089
:100C1000704700BF30313233343536373839000051
:100C20002C00000048616C6C6F0A0D003130300000
:100C300048616C6C6F2C616C6C656D61616C00005F
:100C400043000000504F53495800000000000000CE
:100C50002E000000002020202020202020202828F6
:100C6000282828202020202020202020202020206C
:100C700020202020208810101010101010101010AC
:100C800010101010100404040404040404040410DC
:100C9000101010101010414141414141010101016A
:100CA0000101010101010101010101010101010134
:100CB0001010101010104242424242420202020240
:100CC0000202020202020202020202020202020204
:100CD00010101010200000000000000000000000B4
:100CE0000000000000000000000000000000000004
:100CF00000000000000000000000000000000000F4
:100D000000000000000000000000000000000000E3
:100D100000000000000000000000000000000000D3
:100D200000000000000000000000000000000000C3
:100D300000000000000000000000000000000000B3
:100D400000000000000000000000000000000000A3
:050D500000000000009E
:100D5500000000000102030401020304060708095C
:100D6500000000000000000001000000000000007D
:100D7500000000000000000000000000000000006E
:100D8500000000000000000000000000000000005E
:100D9500000000000000000000000000000000004E
:100DA500000000000000000000000000000000003E
:1011850000000000000000001000002043000000E7
:10119500000000000000000000000000000000004A
:1011A50000000000000000000000000043000000F7
:1011B500000000000000000000000000000000002A
:1011C50000000000000000000000000043000000D7
:1011D500000000000000000000000000000000000A
:1011E50000000000000000000000000043000000B7
:1011F50000000000000000000000000000000000EA
:101205000000000000000000000000004300000096
:1012150000000000000000000000000000000000C9
:101225000000000000000000000000004300000076
:1012350000000000000000000000000000000000A9
:101245000000000000000000000000004300000056
:101255000000000000000000000000000000000089
:10126500000000000000000000000000F90B00086D
:10127500CD0B000800000000540C0008500C0008BD
:101285004C0C00084C0C00084C0C00084C0C0008D9
:101295004C0C00084C0C00084C0C00084C0C0008C9
:1012A5004C0C0008FFFFFFFFFFFFFFFFFFFFFFFFE5
:1012B500FFFF0000010041534349490000000000C1
:1012C5000000000000000000000000000000000019
:1012D50000000000000041534349490000000000A0
:1012E50000000000000000000000000000000000F9
:0812F5000000000000000000F1
:0400000508000000EF
:00000001FF
